S0120000313232615F66696E616C2E73726563B3
S113000045C0000062C0000060C000005EC0000087
S11300105CC000005AC0000058C0000056C0000078
S113002054C0000052C0000050C000004EC0000088
S11300304CC000000C94110A48C0000046C00000E7
S113004044C0000042C0000040C0000057C200008D
S11300503CC000003AC0000038C0000036C00000B8
S113006034C0000032C0000030C000002EC00000C8
S11300702CC000002AC0000028C0000026C00000D8
S113008024C0000022C0000020C0000011241FBEB4
S1130090CFEFD0E4DEBFCDBF11E0A0E0B1E0EEEEE3
S11300A0F0E200E00BBF02C007900D92A238B10746
S11300B0D9F727E0A2E8B1E001C01D92A63FB2073C
S11300C0E1F70E94A6080C9475109ACFCF93DF93A2
S11300D0EC010E94740B2091820130918301CE01C6
S11300E0820F931F8C3D45E0940758F42817390775
S11300F058F4E901CC57DE4F909383018093820139
S113010005C0C0E0D0E002C0C0E0D0E00E943E0CD8
S1130110CE01DF91CF9108950895FC010396928357
S113012081832FEF3FEF34832383968385839087E6
S1130130878310820895FC01118610860895CF9359
S1130140DF93FC01DB0121813281E9018A819B81FA
S113015013969C938E9312978181928115969C930A
S11301608E9314978A819B81EC017D836C83E901D2
S11301707B836A83728361831996FC93EE93189749
S113018080818F5F8083DF91CF910895CF93DF9338
S1130190EB01488159814F3F2FEF520731F4DC01C5
S11301A01796ED91FC91189717C0FC013396DC016A
S11301B015962D913C911697D9012D913C9142179A
S11301C0530750F00280F381E02DA281B3812D9179
S11301D03C9142175307B0F7A281B381BB83AA8332
S11301E01596DC93CE931497FD83EC83D383C2835B
S11301F099878887FC0120812F5F2083DF91CF912D
S11302000895FC01A281B3818481958115969C9304
S11302108E931497A481B5818281938113969C93C4
S11302208E931297A085B18511968D919C9112970A
S11302308E179F0731F48481958112969C938E9337
S11302401197118610868C9181508C930895EAE75A
S1130250F0E08081806C80831092EA071092E907B5
S11302601092E4071092E30708952F923F924F9261
S11302705F926F927F928F929F92AF92BF92CF9232
S1130280DF92EF92FF920F931F93CF93DF93CDB73B
S1130290DEB761970FB6F894DEBF0FBECDBFEAE7B5
S11302A0F0E0808180648083808186FDFDCF809131
S11302B07800909179009093EA078093E907ECE73E
S11302C0F0E0808181608083EAE7F0E080818064EF
S11302D08083808186FDFDCF8091780090917900A4
S11302E09093E4078093E307ECE7F0E080818E7F4E
S11302F080834090E9075090EA0720EF421A21E0FA
S1130300520A5092EA074092E9076090E30770901E
S1130310E4073CE0631A32E0730A7092E4076092E7
S1130320E307952D990F990B972C990C9908A42CF8
S1130330B52CC92ED92EE92EF92E092F192F242DCB
S1130340352D492F592F692F792F892F0E94C90ED6
S1130350222E332E842E5D876E877F87888B998B20
S1130360A62CB72CC92CD92CE92CF92C092D192D24
S1130370262D372D492D592D692D792D892D992D0E
S11303800E94C90EA22EB32EC42ED52EE62EF72E11
S1130390082F192F222D332D482D5D856E857F85DD
S11303A0888999890E941A0F2F3F3F4F41055105B3
S11303B0610571058105910509F01CF41092EF07A0
S11303C035C081E0898382E08A8383E08B8384E083
S11303D08C835E824D8251944194510858864F8299
S11303E07A8669867194619471087C866B86DE01D5
S11303F0179681E090E04D915D91E92FF0E0EE0FCA
S1130400FF1F21E030E02C0F3D1FE20FF31F24817A
S11304103581241735070CF4982F8F5F843059F7F2
S1130420FE01E90FF11D81818093EF0761960FB6FC
S1130430F894DEBF0FBECDBFDF91CF911F910F9116
S1130440FF90EF90DF90CF90BF90AF909F908F90F0
S11304507F906F905F904F903F902F9008951F93DF
S1130460CF93DF93182F86E090E00E94320FEC01C7
S1130470812F90E00E94320F998388831A821B8215
S11304801C821D83CE01DF91CF911F910895FC0141
S113049094818581981788F48381A081B181A80F04
S11304A0B11D6C9383818F5F65810E94BD0E938320
S11304B084818F5F848380E0089581E00895FC0146
S11304C08481882389F08281A081B181A80FB11D24
S11304D02C911C9282818F5F65810E94BD0E928354
S11304E0848181508483822F089580E484B98CB5FB
S11304F0806C8CBD8FB780688FBF08951F920F9258
S11305000FB60F9211248F938EB5809347018F916C
S11305100F900FBE0F901F901895439A419838E0A2
S1130520439A429898B1882314F4916001C09E7F45
S113053098B998B1662314F4906101C09F7E98B96C
S113054098B1442314F4906201C09F7D98B998B186
S1130550222314F4906401C09F7B98B9880F660F1E
S1130560440F220F429A3150D9F6419A089580914E
S1130570EB07811109C020918307409184076091A2
S1130580850780918607C9DF8091EB07811110925E
S1130590EB0708951092EB07EADF82E090E00E94F7
S11305A0C20CFACF2F923F924F925F926F927F923A
S11305B08F929F92AF92BF92CF92DF92EF92FF926F
S11305C00F931F93CF93DF93CDB7DEB72A970FB660
S11305D0F894DEBF0FBECDBF8091E807813009F0EB
S11305E003C10F2EF3E6EF2EF7E0FF2EF02D0F2EB2
S11305F0F3E78F2EF7E09F2EF02D0F2EF7E32F2E2B
S1130600F1E03F2EF02D8BE391E09A8389830FE391
S113061011E0A7E2B1E0BC83AB83AA24A394B12C7C
S1130620FA86E98698868F82F401608171818281DD
S1130630938120E030E044E354E40E94F30D2B0165
S11306403C01D4016D937D938D939C931397E9841E
S1130650FA84FE82ED82D7016D917D918D919C91FA
S113066020E030E044E354E40E94F30D6B017C018C
S1130670E985FA85608371838283938320E030E087
S1130680A901C301B2010E94E80D882374F420E09B
S113069030E044E354E4C301B2010E94840DD40168
S11306A06D937D938D939C93139720E030E0A90183
S11306B0C701B6010E94E80D88230CF09DC020E01C
S11306C030E044E354E4C701B6010E94840DED8197
S11306D0FE8160837183828393838EC0272F372D9D
S11306E0D101DC90DC0164E0D69EA00DB11D112483
S11306F0A95FBE4FAC91AA2379F0D801ED90FC908C
S11307006501008002C0CC0CDD1C0A94E2F7D7011D
S11307106C91C62ACC9210C0D801ED90FC90D50102
S1130720008002C0AA0FBB1F0A94E2F76A2F6095EB
S1130730D701DC906D216C9301963196843091053C
S113074069F65A874987F901A981BA818C9188236E
S113075009F46FC080818F5F883010F480832AC0D1
S1130760108220E030E044E35FE3ED81FE816081AC
S11307707181828193810E94840DAD81BE816D93CC
S11307807D938D939C93139715C0B7E0B08320E0BD
S113079030E044E35FE3ED81FE8160817181828119
S11307A093810E94830DAD81BE816D937D938D9362
S11307B09C931397E985FA853496FA87E987FFEFC6
S11307C02F1A3F0A89819A8101969A8389830E5F41
S11307D01F4FAB81BC811496BC83AB83E985FA853A
S11307E0E357F74009F01ECF8091E807811128C034
S11307F081E08093E80724C064E0860E911CAD81FB
S1130800BE812D913D914D915C91EF81F885608180
S11308107181828193810E94E80D882359F24B8172
S11308205C8180E090E0722DFA0149855A85732C31
S113083055CF8081882309F4A8CF81508083BACF13
S11308402A960FB6F894DEBF0FBECDBFDF91CF91CD
S11308501F910F91FF90EF90DF90CF90BF90AF90DA
S11308609F908F907F906F905F904F903F902F90CC
S113087008951092E80796DE82E090E00E94C20C90
S1130880FACFCF93DF938091EE07813019F0833054
S113089079F01AC02BB181E090E00090060102C00B
S11308A0880F991F0A94E2F7809582238BB90CC0B4
S11308B02BB181E090E00090060102C0880F991FDF
S11308C00A94E2F7822B8BB98091EE07823009F407
S11308D0D3C128F4882351F0813061F031C38330CF
S11308E009F4F1C1843009F414C32AC381E080936C
S11308F0EE0728C380916007882309F423C382E0AC
S11309008093EE078091E1079091E207D8DD809310
S1130910610790916007915090936007811123C003
S1130920C3E7D7E020E030E044EB52E46C817D8102
S11309308E819F810E94840D6C837D838E839F832F
S113094081E080933C0187E797E09093F1078093DF
S1130950F00787E697E09093E7078093E60786E041
S113096080930601EFC2813011F5C3E7D7E020E0A0
S113097030E044EB52E46C817D818E819F810E9442
S1130980830D6C837D838E839F8310923C0187E764
S113099097E09093F1078093F00787E697E09093B0
S11309A0E7078093E60786E080930601CBC2823096
S11309B019F5C3E7D7E020E030E044E353E46C8169
S11309C07D818E819F810E94840D6C837D838E83C3
S11309D09F8381E080933C0187E797E09093F10740
S11309E08093F00787E697E09093E7078093E60704
S11309F086E080930601A6C2833009F5C3E7D7E0F9
S1130A0020E030E044EB52E4688179818A819B8163
S1130A100E94840D688379838A839B8381E0809319
S1130A203B01D093F107C093F00783E697E09093DE
S1130A30E7078093E60787E08093060183C284304A
S1130A4001F5C3E7D7E020E030E044EB52E46881ED
S1130A5079818A819B810E94830D688379838A834B
S1130A609B8310923B01D093F107C093F00783E678
S1130A7097E09093E7078093E60787E08093060169
S1130A8061C2853009F5C3E7D7E020E030E044E3F4
S1130A9053E4688179818A819B810E94840D6883F3
S1130AA079838A839B8381E080933B01D093F10710
S1130AB0C093F00783E697E09093E7078093E607F7
S1130AC087E0809306013EC2863019F5C3E7D7E07C
S1130AD020E030E044EB52E4688579858A859B8583
S1130AE00E94840D688779878A879B8781E0809339
S1130AF03D018BE797E09093F1078093F0078BE635
S1130B0097E09093E7078093E60785E080930601DA
S1130B1019C2873009F5C3E7D7E020E030E044EBA1
S1130B2052E4688579858A859B85EDD768877987BE
S1130B308A879B8710923D018BE797E09093F1079A
S1130B408093F0078BE697E09093E7078093E6079E
S1130B5085E080930601F6C1883011F5C3E7D7E03C
S1130B6020E030E044E353E4688579858A859B85F9
S1130B70CBD7688779878A879B8781E080933D01FB
S1130B808BE797E09093F1078093F0078BE697E06B
S1130B909093E7078093E60785E080930601D2C12E
S1130BA0893011F5C3E7D7E020E030E044EB52E4AC
S1130BB06C857D858E859F85A7D76C877D878E877D
S1130BC09F8781E080933E018FE797E09093F10740
S1130BD08093F0078FE697E09093E7078093E6070A
S1130BE084E080930601AEC18A3009F5C3E7D7E0FB
S1130BF020E030E044EB52E46C857D858E859F8552
S1130C0082D76C877D878E879F8710923E018FE7FE
S1130C1097E09093F1078093F0078FE697E0909325
S1130C20E7078093E60784E0809306018BC18B304D
S1130C3009F088C1C3E7D7E020E030E044E353E49F
S1130C406C857D858E859F855FD76C877D878E8734
S1130C509F8781E080933E018FE797E09093F107AF
S1130C608093F0078FE697E09093E7078093E60779
S1130C7084E08093060166C1E091F007F091F107EA
S1130C80A091E607B091E7072D913D914D915C91BC
S1130C9060817181828193819BD7811153C180913D
S1130CA06107823031F0853021F0883011F08B30CB
S1130CB021F481E08093EE0745C183E08093EE0741
S1130CC0109262073FC18091620791E0980F909360
S1130CD06207833308F436C184E08093EE07809181
S1130CE06107811121C0C3E7D7E020E030E044EB85
S1130CF052E46C817D818E819F8105D76C837D83D5
S1130D008E839F8310923C0187E797E09093F107CD
S1130D108093F00787E697E09093E7078093E607D0
S1130D2086E0809306010EC1813011F5C3E7D7E058
S1130D3020E030E044EB52E46C817D818E819F8120
S1130D40E3D66C837D838E839F8381E080933C0113
S1130D5087E797E09093F1078093F00787E697E0A1
S1130D609093E7078093E60786E080930601EAC044
S1130D708330F9F4C3E7D7E020E030E044EB52E4F9
S1130D80688179818A819B81BED6688379838A83CD
S1130D909B8310923B01D093F107C093F00783E645
S1130DA097E09093E7078093E60787E08093060136
S1130DB0C9C0843001F5C3E7D7E020E030E044EB5C
S1130DC052E4688179818A819B819ED66883798384
S1130DD08A839B8381E080933B01D093F107C09386
S1130DE0F00783E697E09093E7078093E60787E0B0
S1130DF080930601A7C0863009F5C3E7D7E020E059
S1130E0030E044EB52E4688579858A859B857BD6FE
S1130E10688779878A879B8710923D018BE797E0E3
S1130E209093F1078093F0078BE697E09093E707A0
S1130E308093E60785E08093060184C0873011F52E
S1130E40C3E7D7E020E030E044EB52E468857985DD
S1130E508A859B8559D6688779878A879B8781E0AD
S1130E6080933D018BE797E09093F1078093F0071F
S1130E708BE697E09093E7078093E60785E08093FD
S1130E80060160C0893009F5C3E7D7E020E030E00F
S1130E9044EB52E46C857D858E859F8534D66C87C2
S1130EA07D878E879F8710923E018FE797E090930E
S1130EB0F1078093F0078FE697E09093E70780931C
S1130EC0E60784E0809306013DC08A30D9F5C3E784
S1130ED0D7E020E030E044EB52E46C857D858E85DC
S1130EE09F8512D66C877D878E879F8781E080934C
S1130EF03E018FE797E09093F1078093F0078FE628
S1130F0097E09093E7078093E60784E080930601D7
S1130F1019C0E091F007F091F107A091E607B091B4
S1130F20E7072D913D914D915C91608171818281A2
S1130F3093814ED6811106C081E08093EE0702C0F2
S1130F401092EE07DF91CF9108951092EE0799DC8D
S1130F508AE090E017D5FBCF8091EC07813041F017
S1130F6018F08230B9F143C081E08093EC07089512
S1130F707CD98091EF07811104C081E08093EC0754
S1130F800895813049F48BB18BB969E08091E10710
S1130F909091E2077CDA1AC0823039F46AE08091D9
S1130FA0E1079091E20773DA11C0843039F46BE001
S1130FB08091E1079091E2076ADA08C0833031F446
S1130FC06BE08091E1079091E20761DA82E080931F
S1130FD0EC0708954AD98091EF07811104C081E09C
S1130FE08093EC07089582E08093EC0708951092B3
S1130FF0EC0708951092EC07AFDF84E190E0C2D4CF
S1131000FBCF73DA1092ED0708958091ED078130DC
S113101061F4609147016C3028F48091E10790916C
S1131020E20735DA8FEF809347018091ED0788233B
S113103019F0813029F4089581E08093ED07089533
S11310401092ED070895DDDFE0DF8AE090E09AD4A6
S1131050FBCF8091E507823041F4E091E107F09104
S1131060E20784818093600712C0813051F028F038
S1131070823069F0833079F0089581E08093E50748
S1131080089505990DC082E08093E507089583E0F3
S11310908093E5070895059B03C081E08093E507ED
S11310A008951092E507D5DF82E390E06BD4FBCF7F
S11310B0AF92BF92CF92DF92EF92FF920F93CF93B2
S11310C0A12CB12CC12CD12CE12CF12C082F20E027
S11310D030E045E550E06AE471E089E394E0DAD178
S11310E020E030E045E550E062E571E085EA97E014
S11310F0D1D120E030E045E550E068E571E08AECCC
S113110092E0C8D120E030E045E550E060E671E0CF
S11311108AEF97E0BFD120E030E045E550E06BE690
S113112071E083E298E0B6D120E030E045E550E09C
S113113064E771E081E598E0ADD1CF910F91FF9024
S1131140EF90DF90CF90BF90AF90089511B88FEFDC
S113115082B987B918B88AB91BB88EE180D990933F
S1131160E2078093E10773D881E0A2DF94D280E0A4
S113117090E0089531E1FC013083319722E220832D
S11311803197A3E3A08331976083319770833197BC
S11311901082319760E8608331971082319762E062
S11311A06083319763E06083319764E060833197B3
S11311B065E06083319766E06083319767E0608320
S11311C0319768E06083319769E06083319760E12B
S11311D0608331973083319732E13083319733E143
S11311E03083319734E13083319735E1308331975F
S11311F036E13083319737E13083319738E13083FA
S1131200319739E13083319730E23083319731E2DD
S1131210308331972083319723E2208331974083B1
S113122031975083319726E22083319727E2208338
S1131230319728E22083319729E22083319720E3F4
S11312402083319721E320838697089510928900A3
S11312508CE7809388008BE080938100EFE6F0E0D8
S1131260808182608083A091DF07B091E007CD91F7
S1131270CDBFDD91DEBFFF91EF91DF91CF91BF91A3
S1131280AF919F918F917F916F915F914F913F911A
S11312902F911F910F91FF90EF90DF90CF90BF900F
S11312A0AF909F908F907F906F905F904F903F9002
S11312B02F901F900F900FBE0F90089581E0089516
S11312C00F920FB6F8940F921F9211242F923F920F
S11312D04F925F926F927F928F929F92AF92BF9242
S11312E0CF92DF92EF92FF920F931F932F933F932E
S11312F04F935F936F937F938F939F93AF93BF931A
S1131300CF93DF93EF93FF93A091DF07B091E007B2
S11313100DB60D920EB60D928AD3A091DF07B0914F
S1131320E007CD91CDBFDD91DEBFFF91EF91DF915D
S1131330CF91BF91AF919F918F917F916F915F9169
S11313404F913F912F911F910F91FF90EF90DF905C
S1131350CF90BF90AF909F908F907F906F905F9051
S11313604F903F902F901F900F900FBE0F900895B5
S11313700F920FB6F8940F921F9211242F923F925E
S11313804F925F926F927F928F929F92AF92BF9291
S1131390CF92DF92EF92FF920F931F932F933F937D
S11313A04F935F936F937F938F939F93AF93BF9369
S11313B0CF93DF93EF93FF93A091DF07B091E00702
S11313C00DB60D920EB60D9295D131D3A091DF07D3
S11313D0B091E007CD91CDBFDD91DEBFFF91EF91DC
S11313E0DF91CF91BF91AF919F918F917F916F9139
S11313F05F914F913F912F911F910F91FF90EF902B
S1131400DF90CF90BF90AF909F908F907F906F9020
S11314105F904F903F902F901F900F900FBE0F90B2
S11314200895A6DF1895CF93DF93EC01E091DF07D1
S1131430F091E0079383828380918F0790919007C6
S1131440C817D90768F46091DF077091E0078091AD
S1131450A5079091A6076E5F7F4F0E94C60017C034
S11314606091DF077091E0078091A7079091A8072A
S11314706E5F7F4F0E94C6008091480190914901A0
S1131480C817D90720F4D0934901C0934801DF91CC
S1131490CF9108954F925F926F927F928F929F9215
S11314A0AF92BF92CF92DF92EF92FF920F931F936E
S11314B0CF93DF935C014B013A01290181E290E073
S11314C00E946600EC01892B09F4D3C0C114D10435
S11314D009F0CBC0C3010E946600988F8F8B0097E0
S11314E021F4CE010E948C00C4C0A30165EA70E01F
S11314F0E6D59301215031098F89988D3C01620E04
S1131500731E48E050E0B401CE014996DFD518A21D
S1131510102F043008F013E01E8B6E0182E0C80E19
S1131520D11CC6010E949B00CE010C960E949B0018
S1131530D987C88784E090E0811B91099D878C87B7
S1131540DB8BCA8BA201B501C30114DE99838883A6
S1131550E114F10419F0F701D183C0830FB6F894B4
S11315600F92809191078F5F809391078091DF079D
S11315709091E007892BA9F5D093E007C093DF078A
S1131580809191078130E1F58BEB97E00E948D000B
S113159084EC97E00E948D008DEC97E00E948D0012
S11315A086ED97E00E948D0082EB97E00E948D000B
S11315B089EA97E00E948D008CE997E00E948D00F3
S11315C083E997E00E948D0082EB97E09093A8074F
S11315D08093A70789EA97E09093A6078093A507CD
S11315E00FC080918C0781110BC0E091DF07F0914F
S11315F0E0078689081720F0D093E007C093DF073F
S11316008E8990918E07981710F480938E0790918D
S113161087079F5F9093870790918D07981710F421
S113162080938D0790E09C01220F331F220F331FFC
S1131630220F331F820F931FB6018554984F0E94C7
S11316409F000F900FBE80918C07882351F0E0918A
S1131650DF07F091E0078689801728F431DE81E006
S113166009C081E007C081E005C0D88ECF8AC601D9
S11316703CCF8FEFDF91CF911F910F91FF90EF90AF
S1131680DF90CF90BF90AF909F908F907F906F909E
S11316905F904F900895AF92BF92CF92DF92EF92F6
S11316A0FF920F93A12CB12CC12CD12CE12CF12C45
S11316B000E020E030E045E550E06DE771E08EEDBC
S11316C09CE0E8DE813041F4F89480938C0710921A
S11316D0900710928F07BADD0F91FF90EF90DF9083
S11316E0CF90BF90AF90089580918B078F5F8093C8
S11316F08B0708950F931F93CF93DF9380918B07EC
S11317008111B2C080918F079091900701969093B8
S1131710900780938F0780918F0790919007892B72
S113172099F58091A7079091A8072091A50730917A
S1131730A6073093A8072093A7079093A607809342
S1131740A507809188078F5F80938807E091A7079A
S1131750F091A8078081811107C08FEF9FEF9093CC
S113176049018093480110C0E091A707F091A807B0
S11317700580F681E02D0680F781E02D828193813A
S1131780909349018093480120918F0730919007ED
S113179080914801909149012817390708F469C0DC
S11317A0E091A707F091A8078081882399F0E09140
S11317B0A707F091A8070580F681E02DC681D7819F
S11317C08A819B8120918F073091900728173907D0
S11317D0F8F419C08FEF9FEF90934901809348016B
S11317E048C0E091A707F091A8070580F681E02D95
S11317F0C681D7818A819B8120918F073091900780
S11318002817390728F4909349018093480131C07F
S11318108E010E5F1F4FC8010E9401018C899D89B2
S1131820892B21F0CE010C960E9401012E89809112
S11318308D07821710F420938D0730E0C901880FBB
S1131840991F880F991F880F991F820F931FB80142
S11318508554984F0E949F00E091A707F091A80734
S113186080818111BECFB6CF80918A078F5F80932C
S11318708A07DF91CF911F910F910895CF92DF9244
S1131880EF92FF920F931F93CF93DF930FB6F894C9
S11318900F9280918B07815080938B0780918B07E7
S11318A0811162C080919107811132C060C0D7015B
S11318B01596ED91FC911697C681D781CE010C96B1
S11318C00E9401018E010E5F1F4FC8010E94010199
S11318D02E8980918D07821710F420938D0730E0B4
S11318E0C901880F991F880F991F880F991F820FAC
S11318F0931FB8018554984F0E949F00E091DF0721
S1131900F091E0079E898689981758F0DC2C09C06D
S1131910D12C0F2EFCE9EF2EF7E0FF2EF02DCC2476
S1131920C394F70180818111C2CF80918A078823F3
S113193079F080918A07882391F0DCDE80918A0710
S1131940815080938A0780918A078111F6CF07C05E
S1131950F1E0DF1621F080918907813039F410928B
S11319608907AEDC81E003C080E001C080E00F9015
S11319700FBEDF91CF911F910F91FF90EF90DF90F9
S1131980CF900895CF93DF93EC01892B99F0ACDECF
S113199080918F0790919007C80FD91F8091DF071E
S11319A09091E00702960E940101CE013CDD66DFC2
S11319B0811101C085DCDF91CF9108950F2EF3E9E9
S11319C0EF2EF7E0FF2EF02DCBEBD7E080919207BE
S11319D0882341F189DED7011C9150DF112311F1D5
S11319E00FB6F8940F92D7011596ED91FC911697C6
S11319F006811781C80102960E9401018091910716
S1131A00815080939107809192078150809392072F
S1131A100F900FBEF8018789908D0E948C00C80139
S1131A200E948C008881823088F24ADCCFCF80917A
S1131A308B07811113C080918D0790E0FC01EE0F9C
S1131A40FF1FEE0FFF1FEE0FFF1F8E0F9F1FFC01E6
S1131A50E554F84F8081882329F01BC081E08093EE
S1131A608907089580918D07815080938D07809117
S1131A708D0790E0FC01EE0FFF1FEE0FFF1FEE0F2E
S1131A80FF1F8E0F9F1FFC01E554F84F80818823B0
S1131A9049F380918D0790E09C01220F331F220FA0
S1131AA0331F220F331F280F391FD901A554B84FF4
S1131AB01196ED91FC9112970280F381E02D12961C
S1131AC0FC93EE9311972254384FE217F30729F44D
S1131AD022813381FD0132832183FC01EE0FFF1F3C
S1131AE0EE0FFF1FEE0FFF1F8E0F9F1FFC01E5542B
S1131AF0F84F0180F281E02D868197819093E00771
S1131B008093DF0708955058BB27AA270ED0FBC047
S1131B10ECD030F0F1D020F031F49F3F11F41EF4FA
S1131B20E1C00EF4E095E7FBC9C0E92FFDD080F3D6
S1131B30BA17620773078407950718F071F49EF5C6
S1131B4015C10EF4E0950B2EBA2FA02D0B01B9018F
S1131B5090010C01CA01A0011124FF27591B99F01F
S1131B60593F50F4503E68F11A16F040A22F232F2B
S1131B70342F4427585FF3CF469537952795A7957B
S1131B80F0405395C9F77EF41F16BA0B620B730B22
S1131B90840BBAF09150A1F0FF0FBB1F661F771F93
S1131BA0881FC2F70EC0BA0F621F731F841F48F448
S1131BB0879577956795B795F7959E3F08F0B3CFCE
S1131BC09395880F08F09927EE0F979587950895B8
S1131BD051D008F481E0089588D018F011F08CD029
S1131BE038F480C0C4C0E92F9FD0B0F35523C9F3A3
S1131BF0E7FB6217730784079507A8F199F3E92FA8
S1131C00FF2788232AF03197660F771F881FDAF79A
S1131C10952F5527442332F091505040220F331F03
S1131C20441FD2F7BB27E91BF50B621B730B840B14
S1131C30B109C1F222F4620F731F841FB11D3197E1
S1131C402AF0660F771F881FBB1FEFCF91505040BB
S1131C505AF041F0882332F0660F771F881F9150A5
S1131C605040C1F7939530C08695779567959F5FEF
S1131C70D9F7F8CF990F0008550FAA0BE0E8FEEF4B
S1131C8016161706E807F907C0F012161306E4073C
S1131C90F50798F0621B730B840B950B39F40A2635
S1131CA061F0232B242B252B21F408950A2609F413
S1131CB0A140A6958FEF811D811D089597F99F6717
S1131CC080E870E060E008959F3F31F0915020F487
S1131CD0879577956795B795880F911D9695879504
S1131CE097F908959FEF80EC089500240A9416163E
S1131CF0170618060906089500240A9412161306F6
S1131D00140605060895092E0394000C11F4882383
S1131D1052F0BB0F40F4BF2B11F460FF04C06F5F9F
S1131D207F4F8F4F9F4F089557FD9058440F551F75
S1131D3059F05F3F71F04795880F97FB991F61F049
S1131D409F3F79F087950895121613061406551FC0
S1131D50F2CF4695F1DF08C0161617061806991F2C
S1131D60F1CF86957105610508940895E894BB2721
S1131D7066277727CB0197F90895991B79E004C06A
S1131D80991F961708F0961B881F7A95C9F78095B6
S1131D900895DF93CF931F930F939A9DF02D219F66
S1131DA0F00D8B9DF00D8A9DE02DF10D039FF00D3C
S1131DB0029FE00DF11D4E9DE00DF11D5E9DF00DA5
S1131DC04F9DF00D7F936F93BF92AF925F934F93AC
S1131DD0D50139D08B01AC01D70135D0EB01E80F27
S1131DE0F91FD6011FD02F913F91D6012CD0C60FD9
S1131DF0D71FE81FF91FAF91BF9114D02F913F91C6
S1131E0022D0C60FD71FE81FF91FD6011CD0E60F3A
S1131E10F71F9801BE01CF0111240F911F91CF919B
S1131E20DF91089510D0460F571FC81FD91F08F41B
S1131E30319608952A0D3B1D4C1D5D1D6E1D7F1DA1
S1131E40801F911F0895A29FB001B39FC001A39F5B
S1131E50700D811D1124911DB29F700D811D1124DF
S1131E60911D0895CF93DF938230910510F482E0A1
S1131E7090E0E091F407F091F50720E030E0C0E055
S1131E80D0E0309711F14081518148175907C0F0D3
S1131E904817590761F482819381209719F09B8335
S1131EA08A832BC09093F5078093F40726C02115ED
S1131EB0310519F04217530718F49A01BE01DF01E6
S1131EC0EF010280F381E02DDCCF2115310509F10A
S1131ED0281B390B2430310590F412968D919C9176
S1131EE013976115710521F0FB019383828304C06C
S1131EF09093F5078093F407FD01329644C0FD01E9
S1131F00E20FF31F81939193225031092D933C9357
S1131F103AC02091F2073091F307232B41F420912A
S1131F200201309103013093F3072093F2072091CB
S1131F300001309101012115310541F42DB73EB75F
S1131F404091040150910501241B350BE091F207E7
S1131F50F091F307E217F307A0F42E1B3F0B2817A9
S1131F60390778F0AC014E5F5F4F2417350748F00E
S1131F704E0F5F1F5093F3074093F20781939193A1
S1131F8002C0E0E0F0E0CF01DF91CF9108950F931C
S1131F901F93CF93DF93009709F48CC0FC01329711
S1131FA0138212820091F4071091F50701151105AF
S1131FB081F420813181820F931F2091F2073091A7
S1131FC0F3072817390779F5F093F307E093F2073D
S1131FD071C0D80140E050E0AE17BF0750F412962C
S1131FE02D913C911397AD012115310509F1D901CA
S1131FF0F3CF9D01DA013383228360817181860FDF
S1132000971F8217930769F4EC0128813981260F01
S1132010371F2E5F3F4F318320838A819B819383B7
S11320208283452B29F4F093F507E093F40742C02B
S11320301396FC93EE931297ED01499159919E01E9
S1132040240F351FE217F30771F480819181840F07
S1132050951F029611969C938E9382819381139679
S11320609C938E931297E0E0F0E0D80112968D9144
S11320709C911397009719F0F8018C01F6CF8D917C
S11320809C9198012E5F3F4F820F931F2091F2077E
S11320903091F3072817390769F4309729F410921F
S11320A0F5071092F40702C0138212821093F3070B
S11320B00093F207DF91CF911F910F910895DC01F6
S11320C001C06D9341505040E0F70895FB01DC01DD
S11320D04150504048F001900D920020C9F701C0D2
S11120E01D9241505040E0F70895F894FFCF50
S11320EE0000F607200006010000000101000000B8
S11320FE01000000010100000001000000010100C8
S113210E000001010000010706050403020100039B
S113211E0201000706050401010101010101018606
S113212E07860785078507FFFFFF4D6F746F72657E
S113213E72004D6F7665720053686966746572003D
S113214E4A6F79537469636B65720052656365698E
S113215E76657200427574746F6E65720049444CF4
S105216E450026
S9030000FC
