:1000000045C0000062C0000060C000005EC000008B
:100010005CC000005AC0000058C0000056C000007C
:1000200054C0000052C0000050C000004EC000008C
:100030004CC000000C94280A48C0000046C00000D4
:1000400044C0000042C0000040C0000057C2000091
:100050003CC000003AC0000038C0000036C00000BC
:1000600034C0000032C0000030C000002EC00000CC
:100070002CC000002AC0000028C0000026C00000DC
:1000800024C0000022C0000020C0000011241FBEB8
:10009000CFEFD0E4DEBFCDBF11E0A0E0B1E0ECE1F6
:1000A000F1E200E00BBF02C007900D92A438B10747
:1000B000D9F727E0A4E8B1E001C01D92A73FB2073D
:1000C000E1F70E94BD080C948C109ACFCF93DF9378
:1000D000EC010E948B0B2091840130918501CE01AF
:1000E000820F931F8C3D45E0940758F42817390779
:1000F00058F4E901CA57DE4F90938501809384013B
:1001000005C0C0E0D0E002C0C0E0D0E00E94550CC5
:10011000CE01DF91CF9108950895FC01039692835B
:1001200081832FEF3FEF34832383968385839087EA
:10013000878310820895FC01118610860895CF935D
:10014000DF93FC01DB0121813281E9018A819B81FE
:1001500013969C938E9312978181928115969C930E
:100160008E9314978A819B81EC017D836C83E901D6
:100170007B836A83728361831996FC93EE9318974D
:1001800080818F5F8083DF91CF910895CF93DF933C
:10019000EB01488159814F3F2FEF520731F4DC01C9
:1001A0001796ED91FC91189717C0FC013396DC016E
:1001B00015962D913C911697D9012D913C9142179E
:1001C000530750F00280F381E02DA281B3812D917D
:1001D0003C9142175307B0F7A281B381BB83AA8336
:1001E0001596DC93CE931497FD83EC83D383C2835F
:1001F00099878887FC0120812F5F2083DF91CF9131
:100200000895FC01A281B3818481958115969C9308
:100210008E931497A481B5818281938113969C93C8
:100220008E931297A085B18511968D919C9112970E
:100230008E179F0731F48481958112969C938E933B
:100240001197118610868C9181508C930895EAE75E
:10025000F0E08081806C80831092EB071092EA07B7
:100260001092E5071092E40708952F923F924F9263
:100270005F926F927F928F929F92AF92BF92CF9236
:10028000DF92EF92FF920F931F93CF93DF93CDB73F
:10029000DEB761970FB6F894DEBF0FBECDBFEAE7B9
:1002A000F0E0808180648083808186FDFDCF809135
:1002B0007800909179009093EB078093EA07ECE740
:1002C000F0E0808181608083EAE7F0E080818064F3
:1002D0008083808186FDFDCF8091780090917900A8
:1002E0009093E5078093E407ECE7F0E080818E7F50
:1002F00080834090EA075090EB0720EF421A21E0FC
:10030000520A5092EB074092EA076090E40770901F
:10031000E5073CE0631A32E0730A7092E5076092E9
:10032000E407952D990F990B972C990C9908A42CFB
:10033000B52CC92ED92EE92EF92E092F192F242DCF
:10034000352D492F592F692F792F892F0E94E00EC3
:10035000222E332E842E5D876E877F87888B998B24
:10036000A62CB72CC92CD92CE92CF92C092D192D28
:10037000262D372D492D592D692D792D892D992D12
:100380000E94E00EA22EB32EC42ED52EE62EF72EFE
:10039000082F192F222D332D482D5D856E857F85E1
:1003A000888999890E94310F2F3F3F4F41055105A0
:1003B000610571058105910509F01CF41092F007A3
:1003C00035C081E0898382E08A8383E08B8384E087
:1003D0008C835E824D8251944194510858864F829D
:1003E0007A8669867194619471087C866B86DE01D9
:1003F000179681E090E04D915D91E92FF0E0EE0FCE
:10040000FF1F21E030E02C0F3D1FE20FF31F24817E
:100410003581241735070CF4982F8F5F843059F7F6
:10042000FE01E90FF11D81818093F00761960FB6FF
:10043000F894DEBF0FBECDBFDF91CF911F910F911A
:10044000FF90EF90DF90CF90BF90AF909F908F90F4
:100450007F906F905F904F903F902F9008951F93E3
:10046000CF93DF93182F86E090E00E94490FEC01B4
:10047000812F90E00E94490F998388831A821B8202
:100480001C821D83CE01DF91CF911F910895FC0145
:1004900094818581981788F48381A081B181A80F08
:1004A000B11D6C9383818F5F65810E94D40E93830D
:1004B00084818F5F848380E0089581E00895FC014A
:1004C0008481882389F08281A081B181A80FB11D28
:1004D0002C911C9282818F5F65810E94D40E928341
:1004E000848181508483822F089580E484B98CB5FF
:1004F000806C8CBD8FB780688FBF08951F920F925C
:100500000FB60F9211248F938EB5809348018F916F
:100510000F900FBE0F901F901895439A419838E0A6
:10052000439A429898B1882314F4916001C09E7F49
:1005300098B998B1662314F4906101C09F7E98B970
:1005400098B1442314F4906201C09F7D98B998B18A
:10055000222314F4906401C09F7B98B9880F660F22
:10056000440F220F429A3150D9F6419A0895809152
:10057000EC07811109C020918507409147016091E6
:10058000860780918707C9DF8091EC07811110925F
:10059000EC0708951092EC07EADF82E090E00E94F9
:1005A000D90CFACF2F923F924F925F926F927F9227
:1005B0008F929F92AF92BF92CF92DF92EF92FF9273
:1005C0000F931F93CF93DF93CDB7DEB72A970FB664
:1005D000F894DEBF0FBECDBF8091E907813009F0EE
:1005E00003C10F2EF5E6EF2EF7E0FF2EF02D0F2EB4
:1005F000F5E78F2EF7E09F2EF02D0F2EF7E32F2E2D
:10060000F1E03F2EF02D8BE391E09A8389830FE395
:1006100011E0A7E2B1E0BC83AB83AA24A394B12C80
:10062000FA86E98698868F82F401608171818281E1
:10063000938120E030E044E354E40E940A0E2B0151
:100640003C01D4016D937D938D939C931397E98422
:10065000FA84FE82ED82D7016D917D918D919C91FE
:1006600020E030E044E354E40E940A0E6B017C0178
:10067000E985FA85608371838283938320E030E08B
:10068000A901C301B2010E94FF0D882374F420E088
:1006900030E044E354E4C301B2010E949B0DD40155
:1006A0006D937D938D939C93139720E030E0A90187
:1006B000C701B6010E94FF0D88230CF09DC020E009
:1006C00030E044E354E4C701B6010E949B0DED8184
:1006D000FE8160837183828393838EC0272F372DA1
:1006E000D101DC90DC0164E0D69EA00DB11D112487
:1006F000A95FBE4FAC91AA2379F0D801ED90FC9090
:100700006501008002C0CC0CDD1C0A94E2F7D70121
:100710006C91C62ACC9210C0D801ED90FC90D50106
:10072000008002C0AA0FBB1F0A94E2F76A2F6095EF
:10073000D701DC906D216C93019631968430910540
:1007400069F65A874987F901A981BA818C91882372
:1007500009F46FC080818F5F883010F480832AC0D5
:10076000108220E030E044E35FE3ED81FE816081B0
:100770007181828193810E949B0DAD81BE816D93B9
:100780007D938D939C93139715C0B7E0B08320E0C1
:1007900030E044E35FE3ED81FE816081718182811D
:1007A00093810E949A0DAD81BE816D937D938D934F
:1007B0009C931397E985FA853496FA87E987FFEFCA
:1007C0002F1A3F0A89819A8101969A8389830E5F45
:1007D0001F4FAB81BC811496BC83AB83E985FA853E
:1007E000E557F74009F01ECF8091E907811128C035
:1007F00081E08093E90724C064E0860E911CAD81FE
:10080000BE812D913D914D915C91EF81F885608184
:100810007181828193810E94FF0D882359F24B815F
:100820005C8180E090E0722DFA0149855A85732C35
:1008300055CF8081882309F4A8CF81508083BACF17
:100840002A960FB6F894DEBF0FBECDBFDF91CF91D1
:100850001F910F91FF90EF90DF90CF90BF90AF90DE
:100860009F908F907F906F905F904F903F902F90D0
:1008700008951092E90796DE82E090E00E94D90C7C
:10088000FACFCF93DF938091EF07813019F0833057
:10089000D9F034C02091060181E090E0AC01022E35
:1008A00002C0440F551F0A94E2F7342F309540914F
:1008B000470134232F5F02C0880F991F2A95E2F762
:1008C000832B809347012FC04091060121E0240F24
:1008D00081E090E0BC0102C0660F771F2A95E2F725
:1008E0009B01209502C0880F991F4A95E2F79091CD
:1008F0004701892B822380934701FEC1823009F48E
:10090000D4C130F4882359F0813009F030C30BC0D2
:10091000833009F4F1C1843009F412C328C381E0A3
:100920008093EF0726C380916207811104C081E0A4
:100930008093EF071EC382E08093EF078091E20768
:100940009091E307BCDD809363079091620791501B
:1009500090936207811123C0C5E7D7E020E030E023
:1009600044EB52E46C817D818E819F810E949B0DBE
:100970006C837D838E839F8381E080933C0189E734
:1009800097E09093F2078093F10789E697E09093C0
:10099000E8078093E70782E080930601EAC281308E
:1009A00011F5C5E7D7E020E030E044EB52E46C817C
:1009B0007D818E819F810E949A0D6C837D838E83C1
:1009C0009F8310923C0189E797E09093F207809310
:1009D000F10789E697E09093E8078093E70782E0C4
:1009E00080930601C6C2823019F5C5E7D7E020E042
:1009F00030E044E353E46C817D818E819F810E94CD
:100A00009B0D6C837D838E839F8381E080933C016B
:100A100089E797E09093F2078093F10789E697E0E2
:100A20009093E8078093E70782E080930601A1C2D4
:100A3000833001F5C5E7D7E020E030E044EB52E435
:100A4000688179818A819B810E949B0D688379836B
:100A50008A839B8381E080933B01D093F207C0930C
:100A6000F10785E697E09093E8078093E7071092F7
:100A700006017FC28430F9F4C5E7D7E020E030E01A
:100A800044EB52E4688179818A819B810E949A0DAE
:100A9000688379838A839B8310923B01D093F2070A
:100AA000C093F10785E697E09093E8078093E70706
:100AB000109206015EC2853001F5C5E7D7E020E05F
:100AC00030E044E353E4688179818A819B810E940C
:100AD0009B0D688379838A839B8381E080933B01AC
:100AE000D093F207C093F10785E697E09093E8076B
:100AF0008093E707109206013CC2863019F5C5E7DE
:100B0000D7E020E030E044EB52E4688579858A85BF
:100B10009B850E949B0D688779878A879B8781E0E8
:100B200080933D018DE797E09093F2078093F10762
:100B30008DE697E09093E8078093E70784E0809341
:100B4000060117C2873009F5C5E7D7E020E030E09D
:100B500044EB52E4688579858A859B85EBD7688765
:100B600079878A879B8710923D018DE797E0909364
:100B7000F2078093F1078DE697E09093E807809362
:100B8000E70784E080930601F4C1883011F5C5E7DA
:100B9000D7E020E030E044E353E4688579858A8536
:100BA0009B85C9D7688779878A879B8781E08093EF
:100BB0003D018DE797E09093F2078093F1078DE672
:100BC00097E09093E8078093E70784E0809306011D
:100BD000D0C1893011F5C5E7D7E020E030E044EB23
:100BE00052E46C857D858E859F85A5D76C877D8732
:100BF0008E879F8781E080933E0181E897E0909304
:100C0000F2078093F10781E797E09093E8078093DC
:100C1000E70786E080930601ACC18A3009F5C5E795
:100C2000D7E020E030E044EB52E46C857D858E8592
:100C30009F8580D76C877D878E879F8710923E0126
:100C400081E897E09093F2078093F10781E797E0BE
:100C50009093E8078093E70786E08093060189C1B7
:100C60008B3009F086C1C5E7D7E020E030E044E3EF
:100C700053E46C857D858E859F855DD76C877D87E8
:100C80008E879F8781E080933E0181E897E0909373
:100C9000F2078093F10781E797E09093E80780934C
:100CA000E70786E08093060164C1E091F107F091C7
:100CB000F207A091E707B091E8072D913D914D9182
:100CC0005C91608171818281938199D7811151C139
:100CD00080916307823031F0853021F0883011F047
:100CE0008B3021F481E08093EF0743C183E0809350
:100CF000EF07109264073DC18091640791E0980F5F
:100D000090936407833308F434C184E08093EF0741
:100D100080916307811121C0C5E7D7E020E030E072
:100D200044EB52E46C817D818E819F8103D76C837B
:100D30007D838E839F8310923C0189E797E0909397
:100D4000F2078093F10789E697E09093E807809394
:100D5000E70782E0809306010CC1813011F5C5E7F9
:100D6000D7E020E030E044EB52E46C817D818E815D
:100D70009F81E1D66C837D838E839F8381E0809306
:100D80003C0189E797E09093F2078093F10789E6A9
:100D900097E09093E8078093E70782E0809306014D
:100DA000E8C08330F1F4C5E7D7E020E030E044EB61
:100DB00052E4688179818A819B81BCD6688379837A
:100DC0008A839B8310923B01D093F207C093F10773
:100DD00085E697E09093E8078093E7071092060175
:100DE000C8C08430F9F4C5E7D7E020E030E044EB38
:100DF00052E4688179818A819B819DD66883798359
:100E00008A839B8381E080933B01D093F207C09358
:100E1000F10785E697E09093E8078093E707109243
:100E20000601A7C0863009F5C5E7D7E020E030E02D
:100E300044EB52E4688579858A859B857BD66887F3
:100E400079878A879B8710923D018DE797E0909381
:100E5000F2078093F1078DE697E09093E80780937F
:100E6000E70784E08093060184C0873011F5C5E769
:100E7000D7E020E030E044EB52E4688579858A854C
:100E80009B8559D6688779878A879B8781E080937D
:100E90003D018DE797E09093F2078093F1078DE68F
:100EA00097E09093E8078093E70784E0809306013A
:100EB00060C0893009F5C5E7D7E020E030E044EBB9
:100EC00052E46C857D858E859F8534D66C877D87C1
:100ED0008E879F8710923E0181E897E09093F207FA
:100EE0008093F10781E797E09093E8078093E70705
:100EF00086E0809306013DC08A30D9F5C5E7D7E08A
:100F000020E030E044EB52E46C857D858E859F8542
:100F100012D66C877D878E879F8781E080933E0104
:100F200081E897E09093F2078093F10781E797E0DB
:100F30009093E8078093E70786E08093060119C045
:100F4000E091F107F091F207A091E707B091E8076F
:100F50002D913D914D915C91608171818281938150
:100F60004ED6811106C081E08093EF0702C0109237
:100F7000EF07DF91CF9108951092EF0782DC8AE0AE
:100F800090E017D5FBCF8091ED07813041F018F04C
:100F90008230B9F143C081E08093ED07089565D9AF
:100FA0008091F007811104C081E08093ED070895DE
:100FB000813049F48BB18BB960E08091E207909168
:100FC000E30765DA1AC0823039F461E08091E20704
:100FD0009091E3075CDA11C0843039F462E08091CB
:100FE000E2079091E30753DA08C0833031F462E0FE
:100FF0008091E2079091E3074ADA82E08093ED075F
:10100000089533D98091F007811104C081E0809365
:10101000ED07089582E08093ED0708951092ED07A3
:1010200008951092ED07AFDF84E190E0C2D4FBCFCA
:101030005CDA1092EE0708958091EE07813061F43A
:10104000609148016C3028F48091E2079091E307A9
:101050001EDA8FEF809348018091EE07882319F004
:10106000813029F4089581E08093EE07089510926D
:10107000EE070895DDDFE0DF8AE090E09AD4FBCF51
:101080008091E607823041F4E091E207F091E307B6
:1010900084818093620712C0813051F028F0823041
:1010A00069F0833079F0089581E08093E607089530
:1010B00005990DC082E08093E607089583E0809350
:1010C000E6070895059B03C081E08093E607089535
:1010D0001092E607D5DF82E390E06BD4FBCFAF92AE
:1010E000BF92CF92DF92EF92FF920F93CF93A12CFA
:1010F000B12CC12CD12CE12CF12C082F20E030E0B8
:1011000045E550E06BE471E089E394E0DAD120E05A
:1011100030E045E550E063E571E08CEB97E0D1D13C
:1011200020E030E045E550E069E571E08AEC92E0CE
:10113000C8D120E030E045E550E061E671E081E1B2
:1011400098E0BFD120E030E045E550E06CE671E08A
:101150008AE398E0B6D120E030E045E550E065E76D
:1011600071E088E698E0ADD1CF910F91FF90EF90BC
:10117000DF90CF90BF90AF90089511B88FEF82B9F4
:1011800087B918B88AB91BB88EE169D99093E3077B
:101190008093E2075CD881E0A2DF94D280E090E007
:1011A000089531E1FC013083319722E220833197A9
:1011B000A3E3A083319760833197708331971082C6
:1011C000319760E8608331971082319762E06083E5
:1011D000319763E06083319764E06083319765E025
:1011E0006083319766E06083319767E06083319771
:1011F00068E06083319769E06083319760E16083E4
:1012000031973083319732E13083319733E1308346
:10121000319734E13083319735E13083319736E1CE
:101220003083319737E13083319738E1308331971C
:1012300039E13083319730E23083319731E23083C6
:1012400031972083319723E2208331974083319770
:101250005083319726E22083319727E2208331970C
:1012600028E22083319729E22083319720E32083ED
:10127000319721E3208386970895109289008CE7A7
:10128000809388008BE080938100EFE6F0E080811E
:1012900082608083A091E007B091E107CD91CDBF3E
:1012A000DD91DEBFFF91EF91DF91CF91BF91AF91C3
:1012B0009F918F917F916F915F914F913F912F916E
:1012C0001F910F91FF90EF90DF90CF90BF90AF9064
:1012D0009F908F907F906F905F904F903F902F9056
:1012E0001F900F900FBE0F90089581E008950F9208
:1012F0000FB6F8940F921F9211242F923F924F92A3
:101300005F926F927F928F929F92AF92BF92CF9295
:10131000DF92EF92FF920F931F932F933F934F9380
:101320005F936F937F938F939F93AF93BF93CF936D
:10133000DF93EF93FF93A091E007B091E1070DB623
:101340000D920EB60D928AD3A091E007B091E107FD
:10135000CD91CDBFDD91DEBFFF91EF91DF91CF91B8
:10136000BF91AF919F918F917F916F915F914F91BD
:101370003F912F911F910F91FF90EF90DF90CF90B1
:10138000BF90AF909F908F907F906F905F904F90A5
:101390003F902F901F900F900FBE0F9008950F92C7
:1013A0000FB6F8940F921F9211242F923F924F92F2
:1013B0005F926F927F928F929F92AF92BF92CF92E5
:1013C000DF92EF92FF920F931F932F933F934F93D0
:1013D0005F936F937F938F939F93AF93BF93CF93BD
:1013E000DF93EF93FF93A091E007B091E1070DB673
:1013F0000D920EB60D9295D131D3A091E007B09128
:10140000E107CD91CDBFDD91DEBFFF91EF91DF917F
:10141000CF91BF91AF919F918F917F916F915F918C
:101420004F913F912F911F910F91FF90EF90DF907F
:10143000CF90BF90AF909F908F907F906F905F9074
:101440004F903F902F901F900F900FBE0F900895D8
:10145000A6DF1895CF93DF93EC01E091E007F091C0
:10146000E107938382838091900790919107C81739
:10147000D90768F46091E0077091E1078091A607B1
:101480009091A7076E5F7F4F0E94C60017C06091C2
:10149000E0077091E1078091A8079091A9076E5F1E
:1014A0007F4F0E94C6008091490190914A01C81760
:1014B000D90720F4D0934A01C0934901DF91CF911D
:1014C00008954F925F926F927F928F929F92AF9208
:1014D000BF92CF92DF92EF92FF920F931F93CF9321
:1014E000DF935C014B013A01290181E290E00E9407
:1014F0006600EC01892B09F4D3C0C114D10409F0B2
:10150000CBC0C3010E946600988F8F8B009721F497
:10151000CE010E948C00C4C0A30165EA70E0E6D54C
:101520009301215031098F89988D3C01620E731E01
:1015300048E050E0B401CE014996DFD518A2102F43
:10154000043008F013E01E8B6E0182E0C80ED11C3F
:10155000C6010E949B00CE010C960E949B00D98779
:10156000C88784E090E0811B91099D878C87DB8B85
:10157000CA8BA201B501C30114DE99838883E114EB
:10158000F10419F0F701D183C0830FB6F8940F92DC
:10159000809192078F5F809392078091E0079091EE
:1015A000E107892BA9F5D093E107C093E00780916B
:1015B00092078130E1F58CEB97E00E948D0085EC7D
:1015C00097E00E948D008EEC97E00E948D0087EDE1
:1015D00097E00E948D0083EB97E00E948D008AEADD
:1015E00097E00E948D008DE997E00E948D0084E9CC
:1015F00097E00E948D0083EB97E09093A90780937A
:10160000A8078AEA97E09093A7078093A6070FC0E0
:1016100080918D0781110BC0E091E007F091E10707
:101620008689081720F0D093E107C093E0078E89E0
:1016300090918F07981710F480938F0790918807E7
:101640009F5F9093880790918E07981710F480936E
:101650008E0790E09C01220F331F220F331F220FB1
:10166000331F820F931FB6018454984F0E949F002E
:101670000F900FBE80918D07882351F0E091E00715
:10168000F091E1078689801728F431DE81E009C0F6
:1016900081E007C081E005C0D88ECF8AC6013CCF6B
:1016A0008FEFDF91CF911F910F91FF90EF90DF901F
:1016B000CF90BF90AF909F908F907F906F905F90F2
:1016C0004F900895AF92BF92CF92DF92EF92FF9228
:1016D0000F93A12CB12CC12CD12CE12CF12C00E0CA
:1016E00020E030E045E550E06EE771E085EF9CE0FA
:1016F000E8DE813041F4F89480938D0710929107D1
:1017000010929007BADD0F91FF90EF90DF90CF908D
:10171000BF90AF90089580918C078F5F80938C0766
:1017200008950F931F93CF93DF9380918C078111BE
:10173000B2C0809190079091910701969093910784
:10174000809390078091900790919107892B99F54C
:101750008091A8079091A9072091A6073091A7072B
:101760003093A9072093A8079093A7078093A60713
:10177000809189078F5F80938907E091A807F09196
:10178000A9078081811107C08FEF9FEF90934A01D5
:101790008093490110C0E091A807F091A907058046
:1017A000F681E02D0680F781E02D82819381909370
:1017B0004A018093490120919007309191078091CF
:1017C000490190914A012817390708F469C0E0914E
:1017D000A807F091A9078081882399F0E091A807D4
:1017E000F091A9070580F681E02DC681D7818A8115
:1017F0009B81209190073091910728173907F8F4C1
:1018000019C08FEF9FEF90934A018093490148C020
:10181000E091A807F091A9070580F681E02DC68127
:10182000D7818A819B812091900730919107281759
:10183000390728F490934A018093490131C08E0101
:101840000E5F1F4FC8010E9401018C899D89892B61
:1018500021F0CE010C960E9401012E8980918E0705
:10186000821710F420938E0730E0C901880F991F6A
:10187000880F991F880F991F820F931FB8018454F6
:10188000984F0E949F00E091A807F091A9078081DE
:101890008111BECFB6CF80918B078F5F80938B076E
:1018A000DF91CF911F910F910895CF92DF92EF9228
:1018B000FF920F931F93CF93DF930FB6F8940F927D
:1018C00080918C07815080938C0780918C078111C7
:1018D00062C080919207811132C060C0D701159615
:1018E000ED91FC911697C681D781CE010C960E948E
:1018F00001018E010E5F1F4FC8010E9401012E8958
:1019000080918E07821710F420938E0730E0C90172
:10191000880F991F880F991F880F991F820F931F97
:10192000B8018454984F0E949F00E091E007F09125
:10193000E1079E898689981758F0DC2C09C0D12CC4
:101940000F2EFDE9EF2EF7E0FF2EF02DCC24C394EF
:10195000F70180818111C2CF80918B07882379F0B4
:1019600080918B07882391F0DCDE80918B0781507A
:1019700080938B0780918B078111F6CF07C0F1E030
:10198000DF1621F080918A07813039F410928A079E
:10199000AEDC81E003C080E001C080E00F900FBEAC
:1019A000DF91CF911F910F91FF90EF90DF90CF903B
:1019B0000895CF93DF93EC01892B99F0ACDE8091F1
:1019C000900790919107C80FD91F8091E0079091DF
:1019D000E10702960E940101CE013CDD66DF811124
:1019E00001C085DCDF91CF9108950F2EF4E9EF2E31
:1019F000F7E0FF2EF02DCCEBD7E080919307882302
:101A000041F189DED7011C9150DF112311F10FB68E
:101A1000F8940F92D7011596ED91FC9116970681D7
:101A20001781C80102960E9401018091920781509E
:101A300080939207809193078150809393070F9032
:101A40000FBEF8018789908D0E948C00C8010E940A
:101A50008C008881823088F24ADCCFCF80918C075D
:101A6000811113C080918E0790E0FC01EE0FFF1FE3
:101A7000EE0FFF1FEE0FFF1F8E0F9F1FFC01E454A0
:101A8000F84F8081882329F01BC081E080938A076A
:101A9000089580918E07815080938E0780918E07E4
:101AA00090E0FC01EE0FFF1FEE0FFF1FEE0FFF1F78
:101AB0008E0F9F1FFC01E454F84F8081882349F367
:101AC00080918E0790E09C01220F331F220F331F5D
:101AD000220F331F280F391FD901A454B84F119674
:101AE000ED91FC9112970280F381E02D1296FC9308
:101AF000EE9311972154384FE217F30729F422810E
:101B00003381FD0132832183FC01EE0FFF1FEE0FB5
:101B1000FF1FEE0FFF1F8E0F9F1FFC01E454F84FB5
:101B20000180F281E02D868197819093E107809377
:101B3000E00708955058BB27AA270ED0FBC0ECD071
:101B400030F0F1D020F031F49F3F11F41EF4E1C0E9
:101B50000EF4E095E7FBC9C0E92FFDD080F3BA177A
:101B6000620773078407950718F071F49EF515C195
:101B70000EF4E0950B2EBA2FA02D0B01B9019001A8
:101B80000C01CA01A0011124FF27591B99F0593FEC
:101B900050F4503E68F11A16F040A22F232F342F34
:101BA0004427585FF3CF469537952795A795F04082
:101BB0005395C9F77EF41F16BA0B620B730B840B97
:101BC000BAF09150A1F0FF0FBB1F661F771F881F4F
:101BD000C2F70EC0BA0F621F731F841F48F48795A7
:101BE00077956795B795F7959E3F08F0B3CF939596
:101BF000880F08F09927EE0F97958795089551D093
:101C000008F481E0089588D018F011F08CD038F4F1
:101C100080C0C4C0E92F9FD0B0F35523C9F3E7FBC0
:101C20006217730784079507A8F199F3E92FFF2737
:101C300088232AF03197660F771F881FDAF7952FD0
:101C40005527442332F091505040220F331F441F38
:101C5000D2F7BB27E91BF50B621B730B840BB10991
:101C6000C1F222F4620F731F841FB11D31972AF055
:101C7000660F771F881FBB1FEFCF915050405AF05F
:101C800041F0882332F0660F771F881F9150504033
:101C9000C1F7939530C08695779567959F5FD9F783
:101CA000F8CF990F0008550FAA0BE0E8FEEF1616C3
:101CB0001706E807F907C0F012161306E407F50740
:101CC00098F0621B730B840B950B39F40A2661F0B4
:101CD000232B242B252B21F408950A2609F4A14057
:101CE000A6958FEF811D811D089597F99F6780E864
:101CF00070E060E008959F3F31F0915020F48795A7
:101D000077956795B795880F911D9695879597F963
:101D100008959FEF80EC089500240A941616170684
:101D200018060906089500240A94121613061406CC
:101D300005060895092E0394000C11F4882352F02F
:101D4000BB0F40F4BF2B11F460FF04C06F5F7F4FE7
:101D50008F4F9F4F089557FD9058440F551F59F0CE
:101D60005F3F71F04795880F97FB991F61F09F3F88
:101D700079F087950895121613061406551FF2CFB1
:101D80004695F1DF08C0161617061806991FF1CF01
:101D900086957105610508940895E894BB27662728
:101DA0007727CB0197F90895991B79E004C0991F13
:101DB000961708F0961B881F7A95C9F780950895A5
:101DC000DF93CF931F930F939A9DF02D219FF00DDA
:101DD0008B9DF00D8A9DE02DF10D039FF00D029F6C
:101DE000E00DF11D4E9DE00DF11D5E9DF00D4F9D2E
:101DF000F00D7F936F93BF92AF925F934F93D50196
:101E000039D08B01AC01D70135D0EB01E80FF91FB8
:101E1000D6011FD02F913F91D6012CD0C60FD71FCE
:101E2000E81FF91FAF91BF9114D02F913F9122D09D
:101E3000C60FD71FE81FF91FD6011CD0E60FF71FEA
:101E40009801BE01CF0111240F911F91CF91DF9115
:101E5000089510D0460F571FC81FD91F08F4319698
:101E600008952A0D3B1D4C1D5D1D6E1D7F1D801F9D
:101E7000911F0895A29FB001B39FC001A39F700D51
:101E8000811D1124911DB29F700D811D1124911D82
:101E90000895CF93DF938230910510F482E090E0B3
:101EA000E091F507F091F60720E030E0C0E0D0E0E7
:101EB000309711F14081518148175907C0F04817F8
:101EC000590761F482819381209719F09B838A835B
:101ED0002BC09093F6078093F50726C02115310596
:101EE00019F04217530718F49A01BE01DF01EF0100
:101EF0000280F381E02DDCCF2115310509F1281B8B
:101F0000390B2430310590F412968D919C911397E2
:101F10006115710521F0FB019383828304C09093C6
:101F2000F6078093F507FD01329644C0FD01E20FEC
:101F3000F31F81939193225031092D933C933AC022
:101F40002091F3073091F407232B41F420910201F3
:101F5000309103013093F4072093F307209100019F
:101F6000309101012115310541F42DB73EB7409163
:101F7000040150910501241B350BE091F307F0910A
:101F8000F407E217F307A0F42E1B3F0B28173907BD
:101F900078F0AC014E5F5F4F2417350748F04E0FC5
:101FA0005F1F5093F4074093F3078193919302C00E
:101FB000E0E0F0E0CF01DF91CF9108950F931F9300
:101FC000CF93DF93009709F48CC0FC013297138202
:101FD00012820091F5071091F6070115110581F4A1
:101FE00020813181820F931F2091F3073091F407F4
:101FF0002817390779F5F093F407E093F30771C0D8
:10200000D80140E050E0AE17BF0750F412962D9172
:102010003C911397AD012115310509F1D901F3CF99
:102020009D01DA013383228360817181860F971FBE
:102030008217930769F4EC0128813981260F371F35
:102040002E5F3F4F318320838A819B8193838283DC
:10205000452B29F4F093F607E093F50742C0139659
:10206000FC93EE931297ED01499159919E01240F33
:10207000351FE217F30771F480819181840F951F5A
:10208000029611969C938E938281938113969C93D2
:102090008E931297E0E0F0E0D80112968D919C911A
:1020A0001397009719F0F8018C01F6CF8D919C9150
:1020B00098012E5F3F4F820F931F2091F3073091BD
:1020C000F4072817390769F4309729F41092F607B6
:1020D0001092F50702C0138212821093F407009346
:1020E000F307DF91CF911F910F910895DC0101C09B
:1020F0006D9341505040E0F70895FB01DC014150E1
:10210000504048F001900D920020C9F701C01D9287
:0C21100041505040E0F70895F894FFCFD4
:10211C000000F70720000201000000010100000090
:10212C00010000000101000000010000000101009D
:10213C000000010100000107060504030201000371
:10214C0002010007060504010101010101010187DB
:10215C000787078607860755FFFFFF4D6F746F7261
:10216C006572004D6F7665720053686966746572AE
:10217C00004A6F79537469636B65720052656365CD
:10218C006976657200427574746F6E6572004944AD
:04219C004C450000AE
:00000001FF
