S0120000313232615F66696E616C2E73726563B3
S113000045C0000061C000005FC000005DC000008A
S11300105BC0000059C0000057C0000055C000007C
S113002053C0000051C000004FC000004DC000008C
S11300304BC000000C94670847C0000045C0000096
S113004043C0000041C000003FC0000056C2000091
S11300503BC0000039C0000037C0000035C00000BC
S113006033C0000031C000002FC000002DC00000CC
S11300702BC0000029C0000027C0000025C00000DC
S113008023C0000021C000001FC0000011241FBEB7
S1130090CFEFD0E4DEBFCDBF11E0A0E0B1E0E6E9F0
S11300A0FDE100E00BBF02C007900D92AA36B10734
S11300B0D9F727E0AAE6B1E001C01D92A93CB20736
S11300C0E1F79AD60C94C90E9BCFCF93DF93EC0142
S11300D00E94C80920916A0130916B01CE01820F00
S11300E0931F8C3D45E0940758F42817390758F4BA
S11300F0E901C459DE4F90936B0180936A0105C0F6
S1130100C0E0D0E002C0C0E0D0E00E94920ACE017C
S1130110DF91CF9108950895FC0103969283818322
S11301202FEF3FEF348323839683858390878783E0
S113013010820895FC01118610860895CF93DF93F1
S1130140FC01DB0121813281E9018A819B811396C3
S11301509C938E9312978181928115969C938E9392
S113016014978A819B81EC017D836C83E9017B83F5
S11301706A83728361831996FC93EE931897808146
S11301808F5F8083DF91CF910895CF93DF93EB014D
S1130190488159814F3F2FEF520731F4DC01179604
S11301A0ED91FC91189717C0FC013396DC0115966C
S11301B02D913C911697D9012D913C9142175307EB
S11301C050F00280F381E02DA281B3812D913C9106
S11301D042175307B0F7A281B381BB83AA83159654
S11301E0DC93CE931497FD83EC83D383C2839987E6
S11301F08887FC0120812F5F2083DF91CF910895B0
S1130200FC01A281B3818481958115969C938E9380
S11302101497A481B5818281938113969C938E93C4
S11302201297A085B18511968D919C9112978E1786
S11302309F0731F48481958112969C938E93119734
S1130240118610868C9181508C930895EAE7F0E032
S11302508081806C80831092BD071092BC0710923D
S1130260B8071092B70708952F923F924F925F926A
S11302706F927F928F929F92AF92BF92CF92DF92B2
S1130280EF92FF920F931F93CF93DF93CDB7DEB717
S113029061970FB6F894DEBF0FBECDBFEAE7F0E07A
S11302A0808180648083808186FDFDCF8091780089
S11302B0909179009093BD078093BC07ECE7F0E040
S11302C0808181608083EAE7F0E0808180648083BC
S11302D0808186FDFDCF8091780090917900909384
S11302E0B8078093B707ECE7F0E080818E7F8083C6
S11302F04090BC075090BD0720EF421A21E0520AFB
S11303005092BD074092BC076090B7077090B80741
S11303103CE0631A32E0730A7092B8076092B70740
S1130320952D990F990B972C990C9908A42CB52C01
S1130330C92ED92EE92EF92E092F192F242D352D4A
S1130340492F592F692F792F892F0E941D0D222E95
S1130350332E842E5D876E877F87888B998BA62C9E
S1130360B72CC92CD92CE92CF92C092D192D262DA3
S1130370372D492D592D692D792D892D992D0E94BF
S11303801D0DA22EB32EC42ED52EE62EF72E082F29
S1130390192F222D332D482D5D856E857F85888903
S11303A099890E946E0D2F3F3F4F4105510561050C
S11303B071058105910509F01CF41092C20735C03E
S11303C081E0898382E08A8383E08B8384E08C8369
S11303D05E824D8251944194510858864F827A86A8
S11303E069867194619471087C866B86DE01179628
S11303F081E090E04D915D91E92FF0E0EE0FFF1F59
S113040021E030E02C0F3D1FE20FF31F24813581E2
S1130410241735070CF4982F8F5F843059F7FE01A9
S1130420E90FF11D81818093C20761960FB6F8949C
S1130430DEBF0FBECDBFDF91CF911F910F91FF9013
S1130440EF90DF90CF90BF90AF909F908F907F9070
S11304506F905F904F903F902F9008951F93CF938C
S1130460DF93182F86E090E00E94860DEC01812F27
S113047090E00E94860D998388831A821B821C82D5
S11304801D83CE01DF91CF911F910895FC019481CA
S11304908581981788F48381A081B181A80FB11D4B
S11304A06C9383818F5F65810E94110D9383848196
S11304B08F5F848380E0089581E00895FC01848146
S11304C0882389F08281A081B181A80FB11D2C916C
S11304D01C9282818F5F65810E94110D92838481B9
S11304E081508483822F089580E484B98CB5806C14
S11304F08CBD8FB780688FBF08951F920F920FB67F
S11305000F9211248F938EB5809337018F910F90A2
S11305100FBE0F901F901895439A419838E0439A64
S1130520429898B1882314F4916001C09E7F98B9D1
S113053098B1662314F4906101C09F7E98B998B174
S1130540442314F4906201C09F7D98B998B122238A
S113055014F4906401C09F7B98B9880F660F440F10
S1130560220F429A3150D9F6419A08958091BE07DC
S1130570811105C020915A0740E060E0CDDF8091F1
S1130580BE0781111092BE0708951092BE07EEDFD8
S113059082E090E00E94160BFACF2F923F924F9286
S11305A05F926F927F928F929F92AF92BF92CF92FF
S11305B0DF92EF92FF920F931F93CF93DF93CDB708
S11305C0DEB72A970FB6F894DEBF0FBECDBF809179
S11305D0BB07882319F0813019F005C115B803C190
S11305E00F2EFAE4EF2EF7E0FF2EF02D0F2EF2E59A
S11305F08F2EF7E09F2EF02D0F2EFFE22F2EF1E02D
S11306003F2EF02D81E391E09A83898303E311E087
S1130610A7E2B1E0BC83AB83AA24A394B12CFA86ED
S1130620E98698868F82F401608171818281938149
S113063020E030E044E354E40E94470C2B013C01E9
S1130640D4016D937D938D939C931397E984FA84DD
S1130650FE82ED82D7016D917D918D919C9120E078
S113066030E044E354E40E94470C6B017C01E985CB
S1130670FA85608371838283938320E030E0A9014B
S1130680C301B2010E943C0C882374F420E030E0E2
S113069044E354E4C301B2010E94D80BD4016D9326
S11306A07D938D939C93139720E030E0A901C701BB
S11306B0B6010E943C0C88230CF09DC020E030E081
S11306C044E354E4C701B6010E94D80BED81FE81D6
S11306D060837183828393838EC0272F372DD1014A
S11306E0DC90DC0164E0D69EA00DB11D1124A95F4D
S11306F0BE4FAC91AA2379F0D801ED90FC9065012E
S1130700008002C0CC0CDD1C0A94E2F7D7016C9186
S1130710C62ACC9210C0D801ED90FC90D50100807F
S113072002C0AA0FBB1F0A94E2F76A2F6095D70193
S1130730DC906D216C93019631968430910569F6B5
S11307405A874987F901A981BA818C91882309F4D0
S11307506FC080818F5F883010F480832AC010823C
S113076020E030E044E35FE3ED81FE81608171814C
S1130770828193810E94D80BAD81BE816D937D935C
S11307808D939C93139715C0B7E0B08320E030E0BD
S113079044E35FE3ED81FE81608171818281938115
S11307A00E94D70BAD81BE816D937D938D939C93F5
S11307B01397E985FA853496FA87E987FFEF2F1AAC
S11307C03F0A89819A8101969A8389830E5F1F4F1C
S11307D0AB81BC811496BC83AB83E985FA85E25571
S11307E0F74009F01ECF8091BB07811128C081E03A
S11307F08093BB0724C064E0860E911CAD81BE814A
S11308002D913D914D915C91EF81F88560817181CD
S1130810828193810E943C0C882359F24B815C8134
S113082080E090E0722DFA0149855A85732C55CFEA
S11308308081882309F4A8CF81508083BACF2A9677
S11308400FB6F894DEBF0FBECDBFDF91CF911F91DD
S11308500F91FF90EF90DF90CF90BF90AF909F905B
S11308608F907F906F905F904F903F902F9008955E
S11308701092BB0792DE82E090E0D8D6FBCFCF93F4
S1130880DF938091C107813019F0833079F01AC069
S113089028B181E090E00090060102C0880F991F02
S11308A00A94E2F78095822388B90CC028B181E0CC
S11308B090E00090060102C0880F991F0A94E2F7A5
S11308C0822B88B98091C107823009F4F1C028F4E1
S11308D0882351F0813061F0C1C1833009F40FC124
S11308E0843009F4A4C1BAC181E08093C107B8C1BE
S11308F0E091B507F091B6078481882309F4B0C16B
S113090082E08093C107CF01D9DD8093480781112C
S113091022C0C2E5D7E020E030E044EB52E46C8131
S11309207D818E819F8144D76C837D838E839F8359
S113093081E08093320186E597E09093C407809329
S1130940C3078EE497E09093BA078093B90787E0D2
S11309508093060185C1813009F5C2E5D7E020E026
S113096030E044EB52E46C817D818E819F811FD7FE
S11309706C837D838E839F831092320186E597E09A
S11309809093C4078093C3078EE497E09093BA07CB
S11309908093B90787E08093060162C1823011F524
S11309A0C2E5D7E020E030E044E353E46C817D818C
S11309B08E819F81FDD66C837D838E839F8381E0AE
S11309C08093320186E597E09093C4078093C30730
S11309D08EE497E09093BA078093B90787E08093F9
S11309E006013EC1833001F5C2E5D7E020E030E0E6
S11309F044EB52E4688179818A819B81D9D66883EA
S1130A0079838A839B8381E080933101D093C407E7
S1130A10C093C3078AE497E09093BA078093B90719
S1130A2087E0809306011CC18430F9F4C2E5D7E065
S1130A3020E030E044EB52E4688179818A819B8133
S1130A40B6D6688379838A839B8310923101D093CD
S1130A50C407C093C3078AE497E09093BA078093CE
S1130A60B90787E080930601FBC0853009F0F8C020
S1130A70C2E5D7E020E030E044E353E468817981C3
S1130A808A819B8195D6688379838A839B8381E05D
S1130A9080933101D093C407C093C3078AE497E0DD
S1130AA09093BA078093B90787E080930601D8C072
S1130AB0E091C307F091C407A091B907B091BA07B8
S1130AC02D913D914D915C916081718182819381E1
S1130AD0D3D68111C5C080914807823031F085306A
S1130AE021F0883011F08B3021F481E08093C1072C
S1130AF0B7C083E08093C10710924907B1C08091C9
S1130B00490791E0980F90934907833308F4A8C0EC
S1130B1084E08093C10780914807811121C0C2E518
S1130B20D7E020E030E044EB52E46C817D818E819B
S1130B309F813DD66C837D838E839F831092320187
S1130B4086E597E09093C4078093C3078EE497E00B
S1130B509093BA078093B90787E08093060180C019
S1130B60813011F5C2E5D7E020E030E044EB52E4F7
S1130B706C817D818E819F811BD66C837D838E8366
S1130B809F8381E08093320186E597E09093C407C8
S1130B908093C3078EE497E09093BA078093B907D4
S1130BA087E0809306015CC08330F9F4C2E5D7E0A6
S1130BB020E030E044EB52E4688179818A819B81B2
S1130BC0F6D5688379838A839B8310923101D0930D
S1130BD0C407C093C3078AE497E09093BA0780934D
S1130BE0B90787E0809306013BC08430C9F5C2E5AC
S1130BF0D7E020E030E044EB52E4688179818A81D7
S1130C009B81D6D5688379838A839B8381E0809393
S1130C103101D093C407C093C3078AE497E090934B
S1130C20BA078093B90787E08093060119C0E09161
S1130C30C307F091C407A091B907B091BA072D91E9
S1130C403D914D915C91608171818281938114D633
S1130C50811106C081E08093C10702C01092C107D0
S1130C60DF91CF9108951092C10709DE8AE090E0E8
S1130C70DDD4FBCF8091BF07813041F018F0823082
S1130C80B9F143C081E08093BF070895EDDA809104
S1130C90C207811104C081E08093BF0708958130A9
S1130CA049F48BB18BB960E08091B5079091B60798
S1130CB0EDDB1AC0823039F461E08091B507909180
S1130CC0B607E4DB11C0843039F462E08091B507E3
S1130CD09091B607DBDB08C0833031F462E0809189
S1130CE0B5079091B607D2DB82E08093BF070895E1
S1130CF0BBDA8091C207811104C081E08093BF07F1
S1130D00089582E08093BF0708951092BF07089565
S1130D101092BF07AFDF84E190E088D4FBCFE4DB1F
S1130D201092C00708958091C007813061F46091EA
S1130D3037016C3028F48091B5079091B607A6DB93
S1130D408FEF809337018091C007882319F0813099
S1130D5029F4089581E08093C00708951092C00794
S1130D600895DDDFE0DF8AE090E060D4FBCFAF924E
S1130D70BF92CF92DF92EF92FF920F93CF93A12C69
S1130D80B12CC12CD12CE12CF12C082F20E030E027
S1130D9045E550E06AE371E088E394E0CFD120E0D8
S1130DA030E045E550E062E471E083E396E0C6D1CB
S1130DB020E030E045E550E068E471E085EC92E045
S1130DC0BDD120E030E045E550E060E571E088E821
S1130DD096E0B4D120E030E045E550E06BE571E009
S1130DE081EB96E0ABD1CF910F91FF90EF90DF9024
S1130DF0CF90BF90AF90089511B88FEF82B987B9A3
S1130E0018B88AB91BB88EE129DB9093B607809392
S1130E10B5071CDA81E0ABDF92D280E090E0089560
S1130E2031E1FC013083319722E220833197A3E33F
S1130E30A083319760833197708331971082319703
S1130E4060E8608331971082319762E06083319764
S1130E5063E06083319764E06083319765E0608389
S1130E60319766E06083319767E06083319768E08B
S1130E706083319769E06083319760E160833197E3
S1130E803083319732E13083319733E130833197C6
S1130E9034E13083319735E13083319736E1308363
S1130EA0319737E13083319738E13083319739E135
S1130EB03083319730E23083319731E23083319798
S1130EC02083319723E220833197408331975083E5
S1130ED0319726E22083319727E22083319728E255
S1130EE02083319729E22083319720E320833197AF
S1130EF021E3208386970895109289008CE78093DC
S1130F0088008BE080938100EFE6F0E080818260CE
S1130F108083A091B307B091B407CD91CDBFDD918B
S1130F20DEBFFF91EF91DF91CF91BF91AF919F9180
S1130F308F917F916F915F914F913F912F911F916D
S1130F400F91FF90EF90DF90CF90BF90AF909F9064
S1130F508F907F906F905F904F903F902F901F9055
S1130F600F900FBE0F90089581E008950F920FB671
S1130F70F8940F921F9211242F923F924F925F92F6
S1130F806F927F928F929F92AF92BF92CF92DF9295
S1130F90EF92FF920F931F932F933F934F935F937F
S1130FA06F937F938F939F93AF93BF93CF93DF936D
S1130FB0EF93FF93A091B307B091B4070DB60D92D0
S1130FC00EB60D9288D3A091B307B091B407CD911A
S1130FD0CDBFDD91DEBFFF91EF91DF91CF91BF9146
S1130FE0AF919F918F917F916F915F914F913F91BD
S1130FF02F911F910F91FF90EF90DF90CF90BF90B2
S1131000AF909F908F907F906F905F904F903F90A4
S11310102F901F900F900FBE0F9008950F920FB650
S1131020F8940F921F9211242F923F924F925F9245
S11310306F927F928F929F92AF92BF92CF92DF92E4
S1131040EF92FF920F931F932F933F934F935F93CE
S11310506F937F938F939F93AF93BF93CF93DF93BC
S1131060EF93FF93A091B307B091B4070DB60D921F
S11310700EB60D9293D12FD3A091B307B091B407BC
S1131080CD91CDBFDD91DEBFFF91EF91DF91CF9187
S1131090BF91AF919F918F917F916F915F914F918C
S11310A03F912F911F910F91FF90EF90DF90CF9080
S11310B0BF90AF909F908F907F906F905F904F9074
S11310C03F902F901F900F900FBE0F900895A6DFB2
S11310D01895CF93DF93EC01E091B307F091B40737
S11310E0938382838091630790916407C817D9071B
S11310F060F46091B3077091B4078091790790917F
S11311007A076E5F7F4F41D816C06091B307709124
S1131110B40780917B0790917C076E5F7F4F35D831
S11311208091380190913901C817D90720F4D093E0
S11311303901C0933801DF91CF9108954F925F92A6
S11311406F927F928F929F92AF92BF92CF92DF92D3
S1131150EF92FF920F931F93CF93DF935C014B01A8
S11311603A01290181E290E00E946500EC01892B9B
S113117009F4D3C0C114D10409F0CBC0C3010E9447
S11311806500988F8F8B009721F4CE010E948B000D
S1131190C4C0A30165EA70E0E6D59301215031098A
S11311A08F89988D3C01620E731E48E050E0B401B3
S11311B0CE014996DFD518A2102F043008F013E0B1
S11311C01E8B6E0182E0C80ED11CC6010E949A00DB
S11311D0CE010C960E949A00D987C88784E090E0DB
S11311E0811B91099D878C87DB8BCA8BA201B5017A
S11311F0C30116DE99838883E114F10419F0F70121
S1131200D183C0830FB6F8940F92809165078F5FE6
S1131210809365078091B3079091B407892BA9F552
S1131220D093B407C093B307809165078130E1F58B
S11312308FE897E00E948C0088E997E00E948C0078
S113124081EA97E00E948C008AEA97E00E948C0071
S113125086E897E00E948C008DE797E00E948C005E
S113126080E797E00E948C0087E697E00E948C005C
S113127086E897E090937C0780937B078DE797E05F
S113128090937A07809379070FC08091600781114A
S11312900BC0E091B307F091B4078689081720F0DA
S11312A0D093B407C093B3078E89909162079817BF
S11312B010F48093620790915B079F5F90935B07A4
S11312C090916107981710F48093610790E09C0156
S11312D0220F331F220F331F220F331F820F931F3E
S11312E0B6018157984F0E949E000F900FBE8091C7
S11312F06007882351F0E091B307F091B407868921
S1131300801728F433DE81E009C081E007C081E062
S113131005C0D88ECF8AC6013CCF8FEFDF91CF9125
S11313201F910F91FF90EF90DF90CF90BF90AF90FF
S11313309F908F907F906F905F904F900895AF92A1
S1131340BF92CF92DF92EF92FF920F93A12CB12C18
S1131350C12CD12CE12CF12C00E020E030E045E55B
S113136050E064E671E082E39BE0E8DE813041F422
S1131370F894809360071092640710926307BCDDB1
S11313800F91FF90EF90DF90CF90BF90AF900895B2
S113139080915F078F5F80935F0708950F931F937A
S11313A0CF93DF9380915F078111B2C0809163076F
S11313B090916407019690936407809363078091EA
S11313C0630790916407892B99F580917B0790912D
S11313D07C072091790730917A0730937C0720931A
S11313E07B0790937A078093790780915C078F5FDE
S11313F080935C07E0917B07F0917C0780818111E9
S113140007C08FEF9FEF909339018093380110C08C
S1131410E0917B07F0917C070580F681E02D068042
S1131420F781E02D82819381909339018093380173
S113143020916307309164078091380190913901BC
S11314402817390708F469C0E0917B07F0917C07FD
S11314508081882399F0E0917B07F0917C070580D7
S1131460F681E02DC681D7818A819B812091630713
S11314703091640728173907F8F419C08FEF9FEFEC
S1131480909339018093380148C0E0917B07F09133
S11314907C070580F681E02DC681D7818A819B81F6
S11314A020916307309164072817390728F4909333
S11314B039018093380131C08E010E5F1F4FC8017E
S11314C00E9400018C899D89892B21F0CE010C9604
S11314D00E9400012E8980916107821710F42093E5
S11314E0610730E0C901880F991F880F991F880F81
S11314F0991F820F931FB8018157984F0E949E0035
S1131500E0917B07F0917C0780818111BECFB6CF3B
S113151080915E078F5F80935E07DF91CF911F916B
S11315200F910895CF92DF92EF92FF920F931F9342
S1131530CF93DF930FB6F8940F9280915F07815099
S113154080935F0780915F07811162C08091650776
S1131550811132C060C0D7011596ED91FC911697A8
S1131560C681D781CE010C960E9400018E010E5FC8
S11315701F4FC8010E9400012E89809161078217C4
S113158010F42093610730E0C901880F991F880F78
S1131590991F880F991F820F931FB8018157984F85
S11315A00E949E00E091B307F091B4079E8986895A
S11315B0981758F0DC2C09C0D12C0F2EF0E7EF2E31
S11315C0F7E0FF2EF02DCC24C394F7018081811124
S11315D0C2CF80915E07882379F080915E078823CB
S11315E091F0DCDE80915E07815080935E078091EC
S11315F05E078111F6CF07C0F1E0DF1621F080917C
S11316005D07813039F410925D07B0DC81E003C0DE
S113161080E001C080E00F900FBEDF91CF911F9159
S11316200F91FF90EF90DF90CF900895CF93DF93C9
S1131630EC01892B99F0ACDE8091630790916407EB
S1131640C80FD91F8091B3079091B40702960E94E6
S11316500001CE013EDD66DF811101C087DCDF9130
S1131660CF9108950F2EF7E6EF2EF7E0FF2EF02D21
S1131670CFE8D7E080916607882341F189DED7015E
S11316801C9150DF112311F10FB6F8940F92D7017A
S11316901596ED91FC91169706811781C801029663
S11316A00E940001809165078150809365078091B5
S11316B066078150809366070F900FBEF8018789F3
S11316C0908D0E948B00C8010E948B00888182301B
S11316D088F24CDCCFCF80915F07811113C08091D9
S11316E0610790E0FC01EE0FFF1FEE0FFF1FEE0FEE
S11316F0FF1F8E0F9F1FFC01E157F84F8081882345
S113170029F01BC081E080935D07089580916107F3
S11317108150809361078091610790E0FC01EE0F96
S1131720FF1FEE0FFF1FEE0FFF1F8E0F9F1FFC0109
S1131730E157F84F8081882349F38091610790E055
S11317409C01220F331F220F331F220F331F280F38
S1131750391FD901A157B84F1196ED91FC911297F9
S11317600280F381E02D1296FC93EE9311972E568E
S1131770384FE217F30729F422813381FD013283C4
S11317802183FC01EE0FFF1FEE0FFF1FEE0FFF1F63
S11317908E0F9F1FFC01E157F84F0180F281E02D6D
S11317A0868197819093B4078093B3070895505826
S11317B0BB27AA270ED0FBC0ECD030F0F1D020F02C
S11317C031F49F3F11F41EF4E1C00EF4E095E7FB01
S11317D0C9C0E92FFDD080F3BA17620773078407E5
S11317E0950718F071F49EF515C10EF4E0950B2ED3
S11317F0BA2FA02D0B01B90190010C01CA01A0015F
S11318001124FF27591B99F0593F50F4503E68F1B9
S11318101A16F040A22F232F342F4427585FF3CFFA
S1131820469537952795A795F0405395C9F77EF4CB
S11318301F16BA0B620B730B840BBAF09150A1F014
S1131840FF0FBB1F661F771F881FC2F70EC0BA0F9A
S1131850621F731F841F48F4879577956795B79522
S1131860F7959E3F08F0B3CF9395880F08F099271A
S1131870EE0F97958795089551D008F481E0089567
S113188088D018F011F08CD038F480C0C4C0E92F8F
S11318909FD0B0F35523C9F3E7FB6217730784079E
S11318A09507A8F199F3E92FFF2788232AF03197A8
S11318B0660F771F881FDAF7952F5527442332F0D8
S11318C091505040220F331F441FD2F7BB27E91B0E
S11318D0F50B621B730B840BB109C1F222F4620F86
S11318E0731F841FB11D31972AF0660F771F881F5D
S11318F0BB1FEFCF915050405AF041F0882332F093
S1131900660F771F881F91505040C1F7939530C0E0
S11319108695779567959F5FD9F7F8CF990F00085B
S1131920550FAA0BE0E8FEEF16161706E807F907AD
S1131930C0F012161306E407F50798F0621B730B48
S1131940840B950B39F40A2661F0232B242B252BC9
S113195021F408950A2609F4A140A6958FEF811D6C
S1131960811D089597F99F6780E870E060E008950D
S11319709F3F31F0915020F4879577956795B795FF
S1131980880F911D9695879597F908959FEF80ECA0
S1131990089500240A9416161706180609060895D1
S11319A000240A9412161306140605060895092E37
S11319B00394000C11F4882352F0BB0F40F4BF2BA6
S11319C011F460FF04C06F5F7F4F8F4F9F4F0895E6
S11319D057FD9058440F551F59F05F3F71F04795DC
S11319E0880F97FB991F61F09F3F79F087950895C1
S11319F0121613061406551FF2CF4695F1DF08C0E0
S1131A00161617061806991FF1CF869571056105FC
S1131A1008940895E894BB2766277727CB0197F9A4
S1131A200895991B79E004C0991F961708F0961B36
S1131A30881F7A95C9F780950895DF93CF931F93F4
S1131A400F939A9DF02D219FF00D8B9DF00D8A9D93
S1131A50E02DF10D039FF00D029FE00DF11D4E9D51
S1131A60E00DF11D5E9DF00D4F9DF00D7F936F9382
S1131A70BF92AF925F934F93D50139D08B01AC01E4
S1131A80D70135D0EB01E80FF91FD6011FD02F91F4
S1131A903F91D6012CD0C60FD71FE81FF91FAF9175
S1131AA0BF9114D02F913F9122D0C60FD71FE81FAA
S1131AB0F91FD6011CD0E60FF71F9801BE01CF0114
S1131AC011240F911F91CF91DF91089510D0460FEB
S1131AD0571FC81FD91F08F4319608952A0D3B1DBE
S1131AE04C1D5D1D6E1D7F1D801F911F0895A29FBB
S1131AF0B001B39FC001A39F700D811D1124911DDE
S1131B00B29F700D811D1124911D0895CF93DF9311
S1131B108230910510F482E090E0E091C707F091E3
S1131B20C80720E030E0C0E0D0E0309711F14081F8
S1131B30518148175907C0F04817590761F4828149
S1131B409381209719F09B838A832BC09093C807B5
S1131B508093C70726C02115310519F04217530792
S1131B6018F49A01BE01DF01EF010280F381E02D38
S1131B70DCCF2115310509F1281B390B243031053F
S1131B8090F412968D919C9113976115710521F033
S1131B90FB019383828304C09093C8078093C70793
S1131BA0FD01329644C0FD01E20FF31F819391932E
S1131BB0225031092D933C933AC02091C5073091AE
S1131BC0C607232B41F42091020130910301309385
S1131BD0C6072093C507209100013091010121150A
S1131BE0310541F42DB73EB74091040150910501F0
S1131BF0241B350BE091C507F091C607E217F307E4
S1131C00A0F42E1B3F0B2817390778F0AC014E5F68
S1131C105F4F2417350748F04E0F5F1F5093C607D8
S1131C204093C5078193919302C0E0E0F0E0CF01B7
S1131C30DF91CF9108950F931F93CF93DF93009774
S1131C4009F48CC0FC013297138212820091C707F9
S1131C501091C8070115110581F420813181820F8B
S1131C60931F2091C5073091C6072817390779F5C6
S1131C70F093C607E093C50771C0D80140E050E077
S1131C80AE17BF0750F412962D913C911397AD01F6
S1131C902115310509F1D901F3CF9D01DA0133830F
S1131CA0228360817181860F971F8217930769F4DD
S1131CB0EC0128813981260F371F2E5F3F4F318376
S1131CC020838A819B8193838283452B29F4F0931B
S1131CD0C807E093C70742C01396FC93EE9312978C
S1131CE0ED01499159919E01240F351FE217F30725
S1131CF071F480819181840F951F029611969C93B3
S1131D008E938281938113969C938E931297E0E035
S1131D10F0E0D80112968D919C911397009719F0D9
S1131D20F8018C01F6CF8D919C9198012E5F3F4F65
S1131D30820F931F2091C5073091C60728173907D2
S1131D4069F4309729F41092C8071092C70702C0AB
S1131D50138212821093C6070093C507DF91CF91B7
S1131D601F910F910895DC0101C06D9341505040C3
S1131D70E0F70895FB01DC014150504048F0019028
S1131D800D920020C9F701C01D9241505040E0F768
S1091D900895F894FFCF52
S1131D960000C9072000070100000001010000003F
S1131DA60100000001010000000100000001010023
S1131DB600000101000001070605040302010001F9
S1131DC60101015A075A07FFFFFF4D6F746F7265D1
S1131DD672004D6F766572005368696674657200A9
S1131DE64A6F79537469636B6572005265636569FA
S10D1DF67665720049444C45000074
S9030000FC
