:1000000045C0000062C0000060C000005EC000008B
:100010005CC000005AC0000058C0000056C000007C
:1000200054C0000052C0000050C000004EC000008C
:100030004CC000000C94D00948C0000046C000002D
:1000400044C0000042C0000040C0000057C2000091
:100050003CC000003AC0000038C0000036C00000BC
:1000600034C0000032C0000030C000002EC00000CC
:100070002CC000002AC0000028C0000026C00000DC
:1000800024C0000022C0000020C0000011241FBEB8
:10009000CFEFD0E4DEBFCDBF11E0A0E0B1E0ECE6F1
:1000A000F0E200E00BBF02C007900D92AA37B10743
:1000B000D9F727E0AAE7B1E001C01D92AA3EB20736
:1000C000E1F70E9465080C9434109ACFCF93DF9328
:1000D000EC010E94330B20917A0130917B01CE011B
:1000E000820F931F8C3D45E0940758F42817390779
:1000F00058F4E901C458DE4F90937B0180937A0154
:1001000005C0C0E0D0E002C0C0E0D0E00E94FD0B1E
:10011000CE01DF91CF9108950895FC01039692835B
:1001200081832FEF3FEF34832383968385839087EA
:10013000878310820895FC01118610860895CF935D
:10014000DF93FC01DB0121813281E9018A819B81FE
:1001500013969C938E9312978181928115969C930E
:100160008E9314978A819B81EC017D836C83E901D6
:100170007B836A83728361831996FC93EE9318974D
:1001800080818F5F8083DF91CF910895CF93DF933C
:10019000EB01488159814F3F2FEF520731F4DC01C9
:1001A0001796ED91FC91189717C0FC013396DC016E
:1001B00015962D913C911697D9012D913C9142179E
:1001C000530750F00280F381E02DA281B3812D917D
:1001D0003C9142175307B0F7A281B381BB83AA8336
:1001E0001596DC93CE931497FD83EC83D383C2835F
:1001F00099878887FC0120812F5F2083DF91CF9131
:100200000895FC01A281B3818481958115969C9308
:100210008E931497A481B5818281938113969C93C8
:100220008E931297A085B18511968D919C9112970E
:100230008E179F0731F48481958112969C938E933B
:100240001197118610868C9181508C930895EAE75E
:10025000F0E08081806C80831092DE071092DD07D1
:100260001092D9071092D80708952F923F924F927B
:100270005F926F927F928F929F92AF92BF92CF9236
:10028000DF92EF92FF920F931F93CF93DF93CDB73F
:10029000DEB761970FB6F894DEBF0FBECDBFEAE7B9
:1002A000F0E0808180648083808186FDFDCF809135
:1002B0007800909179009093DE078093DD07ECE75A
:1002C000F0E0808181608083EAE7F0E080818064F3
:1002D0008083808186FDFDCF8091780090917900A8
:1002E0009093D9078093D807ECE7F0E080818E7F68
:1002F00080834090DD075090DE0720EF421A21E016
:10030000520A5092DE074092DD076090D807709045
:10031000D9073CE0631A32E0730A7092D907609201
:10032000D807952D990F990B972C990C9908A42C07
:10033000B52CC92ED92EE92EF92E092F192F242DCF
:10034000352D492F592F692F792F892F0E94880E1B
:10035000222E332E842E5D876E877F87888B998B24
:10036000A62CB72CC92CD92CE92CF92C092D192D28
:10037000262D372D492D592D692D792D892D992D12
:100380000E94880EA22EB32EC42ED52EE62EF72E56
:10039000082F192F222D332D482D5D856E857F85E1
:1003A000888999890E94D90E2F3F3F4F41055105F9
:1003B000610571058105910509F01CF41092E307B0
:1003C00035C081E0898382E08A8383E08B8384E087
:1003D0008C835E824D8251944194510858864F829D
:1003E0007A8669867194619471087C866B86DE01D9
:1003F000179681E090E04D915D91E92FF0E0EE0FCE
:10040000FF1F21E030E02C0F3D1FE20FF31F24817E
:100410003581241735070CF4982F8F5F843059F7F6
:10042000FE01E90FF11D81818093E30761960FB60C
:10043000F894DEBF0FBECDBFDF91CF911F910F911A
:10044000FF90EF90DF90CF90BF90AF909F908F90F4
:100450007F906F905F904F903F902F9008951F93E3
:10046000CF93DF93182F86E090E00E94F10EEC010D
:10047000812F90E00E94F10E998388831A821B825B
:100480001C821D83CE01DF91CF911F910895FC0145
:1004900094818581981788F48381A081B181A80F08
:1004A000B11D6C9383818F5F65810E947C0E938365
:1004B00084818F5F848380E0089581E00895FC014A
:1004C0008481882389F08281A081B181A80FB11D28
:1004D0002C911C9282818F5F65810E947C0E928399
:1004E000848181508483822F089580E484B98CB5FF
:1004F000806C8CBD8FB780688FBF08951F920F925C
:100500000FB60F9211248F938EB5809347018F9170
:100510000F900FBE0F901F901895439A419838E0A6
:10052000439A429898B1882314F4916001C09E7F49
:1005300098B998B1662314F4906101C09F7E98B970
:1005400098B1442314F4906201C09F7D98B998B18A
:10055000222314F4906401C09F7B98B9880F660F22
:10056000440F220F429A3150D9F6419A0895809152
:10057000DF07811107C020E040E060917A07809199
:100580007B07CBDF8091DF0781111092DF07089591
:100590001092DF07ECDF82E090E00E94810CFACF3E
:1005A0002F923F924F925F926F927F928F929F9283
:1005B000AF92BF92CF92DF92EF92FF920F931F9371
:1005C000CF93DF93CDB7DEB72A970FB6F894DEBF8F
:1005D0000FBECDBF8091DC07813009F003C10F2E23
:1005E000FAE5EF2EF7E0FF2EF02D0F2EFAE68F2E14
:1005F000F7E09F2EF02D0F2EF7E32F2EF1E03F2E88
:10060000F02D8BE391E09A8389830FE311E0A7E259
:10061000B1E0BC83AB83AA24A394B12CFA86E9860B
:1006200098868F82F401608171818281938120E0BC
:1006300030E044E354E40E94B20D2B013C01D401AC
:100640006D937D938D939C931397E984FA84FE8236
:10065000ED82D7016D917D918D919C9120E030E0EC
:1006600044E354E40E94B20D6B017C01E985FA85F4
:10067000608371838283938320E030E0A901C3010A
:10068000B2010E94A70D882374F420E030E044E317
:1006900054E4C301B2010E94430DD4016D937D93D4
:1006A0008D939C93139720E030E0A901C701B60118
:1006B0000E94A70D88230CF09DC020E030E044E3A9
:1006C00054E4C701B6010E94430DED81FE816083B1
:1006D0007183828393838EC0272F372DD101DC90C5
:1006E000DC0164E0D69EA00DB11D1124A95FBE4FB0
:1006F000AC91AA2379F0D801ED90FC9065010080BF
:1007000002C0CC0CDD1C0A94E2F7D7016C91C62A1A
:10071000CC9210C0D801ED90FC90D501008002C0B1
:10072000AA0FBB1F0A94E2F76A2F6095D701DC90ED
:100730006D216C93019631968430910569F65A8744
:100740004987F901A981BA818C91882309F46FC086
:1007500080818F5F883010F480832AC0108220E06F
:1007600030E044E35FE3ED81FE816081718182814D
:1007700093810E94430DAD81BE816D937D938D93D6
:100780009C93139715C0B7E0B08320E030E044E3BA
:100790005FE3ED81FE8160817181828193810E949E
:1007A000420DAD81BE816D937D938D939C93139784
:1007B000E985FA853496FA87E987FFEF2F1A3F0A11
:1007C00089819A8101969A8389830E5F1F4FAB813D
:1007D000BC811496BC83AB83E985FA85EA56F74061
:1007E00009F01ECF8091DC07811128C081E0809341
:1007F000DC0724C064E0860E911CAD81BE812D9182
:100800003D914D915C91EF81F8856081718182818C
:1008100093810E94A70D882359F24B815C8180E06F
:1008200090E0722DFA0149855A85732C55CF80814D
:10083000882309F4A8CF81508083BACF2A960FB6B7
:10084000F894DEBF0FBECDBFDF91CF911F910F9106
:10085000FF90EF90DF90CF90BF90AF909F908F90E0
:100860007F906F905F904F903F902F9008951092DF
:10087000DC0796DE82E090E00E94810CFACFCF93F5
:10088000DF938091E207813019F0833079F01AC04C
:100890002BB181E090E00090060102C0880F991F03
:1008A0000A94E2F7809582238BB90CC02BB181E0CA
:1008B00090E00090060102C0880F991F0A94E2F7A9
:1008C000822B8BB98091E207823009F4CCC128F4E5
:1008D000882351F0813061F02AC3833009F4EAC1E2
:1008E000843009F40DC323C381E08093E20721C360
:1008F000E091D607F091D7078481882309F419C3C2
:1009000082E08093E207CF01DADD809358078111FE
:1009100023C0CAE6D7E020E030E044EB52E46C812B
:100920007D818E819F810E94430D6C837D838E83A8
:100930009F8381E080933C018EE697E09093E507EA
:100940008093E4078EE597E09093DB078093DA07C6
:1009500086E080930601EDC2813011F5CAE6D7E04A
:1009600020E030E044EB52E46C817D818E819F81F8
:100970000E94420D6C837D838E839F8310923C0185
:100980008EE697E09093E5078093E4078EE597E085
:100990009093DB078093DA0786E080930601C9C253
:1009A000823019F5CAE6D7E020E030E044E353E4B2
:1009B0006C817D818E819F810E94430D6C837D833C
:1009C0008E839F8381E080933C018EE697E0909335
:1009D000E5078093E4078EE597E09093DB0780932B
:1009E000DA0786E080930601A4C2833009F5CAE6DF
:1009F000D7E020E030E044EB52E4688179818A81DD
:100A00009B810E94430D688379838A839B8381E065
:100A100080933B01D093E507C093E4078AE597E014
:100A20009093DB078093DA0787E08093060181C209
:100A3000843001F5CAE6D7E020E030E044EB52E430
:100A4000688179818A819B810E94420D68837983C4
:100A50008A839B8310923B01D093E507C093E40700
:100A60008AE597E09093DB078093DA0787E080932D
:100A700006015FC2853001F5CAE6D7E020E030E02C
:100A800044E353E4688179818A819B81FCD7688340
:100A900079838A839B8381E080933B01D093E50730
:100AA000C093E4078AE597E09093DB078093DA0729
:100AB00087E0809306013DC2863011F5CAE6D7E093
:100AC00020E030E044EB52E4688579858A859B8597
:100AD000DAD7688779878A879B8781E080933D0191
:100AE00082E797E09093E5078093E40782E697E03A
:100AF0009093DB078093DA0785E08093060119C2A3
:100B0000873009F5CAE6D7E020E030E044EB52E454
:100B1000688579858A859B85B5D7688779878A872F
:100B20009B8710923D0182E797E09093E5078093C1
:100B3000E40782E697E09093DB078093DA0785E08D
:100B400080930601F6C1883011F5CAE6D7E020E0AF
:100B500030E044E353E4688579858A859B8593D7A3
:100B6000688779878A879B8781E080933D0182E748
:100B700097E09093E5078093E40782E697E09093EF
:100B8000DB078093DA0785E080930601D2C18930C4
:100B900011F5CAE6D7E020E030E044EB52E46C8582
:100BA0007D858E859F856FD76C877D878E879F8794
:100BB00081E080933E0186E797E09093E50780937C
:100BC000E40786E697E09093DB078093DA0784E0FA
:100BD00080930601AEC18A3009F5CAE6D7E020E06D
:100BE00030E044EB52E46C857D858E859F854AD745
:100BF0006C877D878E879F8710923E0186E797E0FE
:100C00009093E5078093E40786E697E09093DB07EF
:100C10008093DA0784E0809306018BC18B3009F062
:100C200088C1CAE6D7E020E030E044E353E46C85B5
:100C30007D858E859F8527D76C877D878E879F874B
:100C400081E080933E0186E797E09093E5078093EB
:100C5000E40786E697E09093DB078093DA0784E069
:100C60008093060166C1E091E407F091E507A09149
:100C7000DA07B091DB072D913D914D915C91608138
:100C800071818281938163D7811153C1809158070B
:100C9000823031F0853021F0883011F08B3021F432
:100CA00081E08093E20745C183E08093E2071092E0
:100CB00059073FC18091590791E0980F90935907C8
:100CC000833308F436C184E08093E20780915807AB
:100CD000811121C0CAE6D7E020E030E044EB52E4C5
:100CE0006C817D818E819F81CDD66C837D838E8347
:100CF0009F8310923C018EE697E09093E5078093E6
:100D0000E4078EE597E09093DB078093DA0786E0AF
:100D1000809306010EC1813011F5CAE6D7E020E0CC
:100D200030E044EB52E46C817D818E819F81ABD6B3
:100D30006C837D838E839F8381E080933C018EE66C
:100D400097E09093E5078093E4078EE597E0909312
:100D5000DB078093DA0786E080930601EAC08330E0
:100D6000F9F4CAE6D7E020E030E044EB52E46881D1
:100D700079818A819B8186D6688379838A839B83E4
:100D800010923B01D093E507C093E4078AE597E012
:100D90009093DB078093DA0787E080930601C9C050
:100DA000843001F5CAE6D7E020E030E044EB52E4BD
:100DB000688179818A819B8166D6688379838A83F9
:100DC0009B8381E080933B01D093E507C093E407C8
:100DD0008AE597E09093DB078093DA0787E08093BA
:100DE0000601A7C0863009F5CAE6D7E020E030E06A
:100DF00044EB52E4688579858A859B8543D668876C
:100E000079878A879B8710923D0182E797E09093CC
:100E1000E5078093E40782E697E09093DB078093F1
:100E2000DA0785E08093060184C0873011F5CAE6B1
:100E3000D7E020E030E044EB52E4688579858A858C
:100E40009B8521D6688779878A879B8781E08093F5
:100E50003D0182E797E09093E5078093E40782E6FF
:100E600097E09093DB078093DA0785E08093060193
:100E700060C0893009F5CAE6D7E020E030E044EBF5
:100E800052E46C857D858E859F85FCD56C877D873A
:100E90008E879F8710923E0186E797E09093E50743
:100EA0008093E40786E697E09093DB078093DA0768
:100EB00084E0809306013DC08A30D9F5CAE6D7E0C8
:100EC00020E030E044EB52E46C857D858E859F8583
:100ED000DAD56C877D878E879F8781E080933E017E
:100EE00086E797E09093E5078093E40786E697E02E
:100EF0009093DB078093DA0784E08093060119C0A2
:100F0000E091E407F091E507A091DA07B091DB07E3
:100F10002D913D914D915C91608171818281938190
:100F200016D6811106C081E08093E20702C01092BC
:100F3000E207DF91CF9108951092E207A0DC8AE0EA
:100F400090E0DFD4FBCF8091E007813041F018F0D2
:100F50008230B9F143C081E08093E007089585D9DC
:100F60008091E307811104C081E08093E007089538
:100F7000813049F48BB18BB969E08091D6079091AB
:100F8000D70785DA1AC0823039F46AE08091D60733
:100F90009091D7077CDA11C0843039F46BE08091EE
:100FA000D6079091D70773DA08C0833031F46BE02D
:100FB0008091D6079091D7076ADA82E08093E007A4
:100FC000089553D98091E307811104C081E0809393
:100FD000E007089582E08093E00708951092E0070B
:100FE00008951092E007AFDF84E190E08AD4FBCF50
:100FF0007CDA1092E10708958091E107813061F475
:10100000609147016C3028F48091D6079091D70702
:101010003EDA8FEF809347018091E107882319F032
:10102000813029F4089581E08093E10708951092BA
:10103000E1070895DDDFE0DF8AE090E062D4FBCFD6
:10104000AF92BF92CF92DF92EF92FF920F93CF9326
:10105000A12CB12CC12CD12CE12CF12C082F20E09B
:1010600030E045E550E06AE471E087E394E0D1D1F7
:1010700020E030E045E550E062E571E08CE997E082
:10108000C8D120E030E045E550E068E571E088EC4B
:1010900092E0BFD120E030E045E550E060E671E04D
:1010A00081EF97E0B6D120E030E045E550E06BE617
:1010B00071E08AE198E0ADD1CF910F91FF90EF9070
:1010C000DF90CF90BF90AF90089511B88FEF82B9A5
:1010D00087B918B88AB91BB88EE1C1D99093D707E0
:1010E0008093D607B4D881E0ABDF94D280E090E063
:1010F000089531E1FC013083319722E2208331975A
:10110000A3E3A08331976083319770833197108276
:10111000319760E8608331971082319762E0608395
:10112000319763E06083319764E06083319765E0D5
:101130006083319766E06083319767E06083319721
:1011400068E06083319769E06083319760E1608394
:1011500031973083319732E13083319733E13083F7
:10116000319734E13083319735E13083319736E17F
:101170003083319737E13083319738E130833197CD
:1011800039E13083319730E23083319731E2308377
:1011900031972083319723E2208331974083319721
:1011A0005083319726E22083319727E220833197BD
:1011B00028E22083319729E22083319720E320839E
:1011C000319721E3208386970895109289008CE758
:1011D000809388008BE080938100EFE6F0E08081CF
:1011E00082608083A091D407B091D507CD91CDBF07
:1011F000DD91DEBFFF91EF91DF91CF91BF91AF9174
:101200009F918F917F916F915F914F913F912F911E
:101210001F910F91FF90EF90DF90CF90BF90AF9014
:101220009F908F907F906F905F904F903F902F9006
:101230001F900F900FBE0F90089581E008950F92B8
:101240000FB6F8940F921F9211242F923F924F9253
:101250005F926F927F928F929F92AF92BF92CF9246
:10126000DF92EF92FF920F931F932F933F934F9331
:101270005F936F937F938F939F93AF93BF93CF931E
:10128000DF93EF93FF93A091D407B091D5070DB6EC
:101290000D920EB60D928AD3A091D407B091D507C6
:1012A000CD91CDBFDD91DEBFFF91EF91DF91CF9169
:1012B000BF91AF919F918F917F916F915F914F916E
:1012C0003F912F911F910F91FF90EF90DF90CF9062
:1012D000BF90AF909F908F907F906F905F904F9056
:1012E0003F902F901F900F900FBE0F9008950F9278
:1012F0000FB6F8940F921F9211242F923F924F92A3
:101300005F926F927F928F929F92AF92BF92CF9295
:10131000DF92EF92FF920F931F932F933F934F9380
:101320005F936F937F938F939F93AF93BF93CF936D
:10133000DF93EF93FF93A091D407B091D5070DB63B
:101340000D920EB60D9295D131D3A091D407B091E4
:10135000D507CD91CDBFDD91DEBFFF91EF91DF913C
:10136000CF91BF91AF919F918F917F916F915F913D
:101370004F913F912F911F910F91FF90EF90DF9030
:10138000CF90BF90AF909F908F907F906F905F9025
:101390004F903F902F901F900F900FBE0F90089589
:1013A000A6DF1895CF93DF93EC01E091D407F0917D
:1013B000D507938382838091840790918507C8170E
:1013C000D90768F46091D4077091D50780919A0786
:1013D00090919B076E5F7F4F0E94C60017C060917F
:1013E000D4077091D50780919C0790919D076E5FFF
:1013F0007F4F0E94C6008091480190914901C81713
:10140000D90720F4D0934901C0934801DF91CF91CF
:1014100008954F925F926F927F928F929F92AF92B8
:10142000BF92CF92DF92EF92FF920F931F93CF93D1
:10143000DF935C014B013A01290181E290E00E94B7
:101440006600EC01892B09F4D3C0C114D10409F062
:10145000CBC0C3010E946600988F8F8B009721F448
:10146000CE010E948C00C4C0A30165EA70E0E6D5FD
:101470009301215031098F89988D3C01620E731EB2
:1014800048E050E0B401CE014996DFD518A2102FF4
:10149000043008F013E01E8B6E0182E0C80ED11CF0
:1014A000C6010E949B00CE010C960E949B00D9872A
:1014B000C88784E090E0811B91099D878C87DB8B36
:1014C000CA8BA201B501C30114DE99838883E1149C
:1014D000F10419F0F701D183C0830FB6F8940F928D
:1014E000809186078F5F809386078091D4079091C3
:1014F000D507892BA9F5D093D507C093D407809140
:1015000086078130E1F580EB97E00E948D0089EB42
:1015100097E00E948D0082EC97E00E948D008BEC9A
:1015200097E00E948D0087EA97E00E948D008EE987
:1015300097E00E948D0081E997E00E948D0088E885
:1015400097E00E948D0087EA97E090939D07809333
:101550009C078EE997E090939B0780939A070FC0B2
:101560008091810781110BC0E091D407F091D507DC
:101570008689081720F0D093D507C093D4078E89A9
:1015800090918307981710F48093830790917C07BC
:101590009F5F90937C0790918207981710F4809337
:1015A000820790E09C01220F331F220F331F220F6E
:1015B000331F820F931FB6018055984F0E949F00E2
:1015C0000F900FBE80918107882351F0E091D407DE
:1015D000F091D5078689801728F431DE81E009C0B3
:1015E00081E007C081E005C0D88ECF8AC6013CCF1C
:1015F0008FEFDF91CF911F910F91FF90EF90DF90D0
:10160000CF90BF90AF909F908F907F906F905F90A2
:101610004F900895AF92BF92CF92DF92EF92FF92D8
:101620000F93A12CB12CC12CD12CE12CF12C00E07A
:1016300020E030E045E550E064E771E08DE99CE0B2
:10164000E8DE813041F4F894809381071092850799
:1016500010928407BADD0F91FF90EF90DF90CF904A
:10166000BF90AF900895809180078F5F809380072F
:1016700008950F931F93CF93DF938091800781117B
:10168000B2C0809184079091850701969093850759
:10169000809384078091840790918507892B99F521
:1016A00080919C0790919D0720919A0730919B070C
:1016B00030939D0720939C0790939B0780939A07F4
:1016C00080917D078F5F80937D07E0919C07F0916B
:1016D0009D078081811107C08FEF9FEF9093490193
:1016E0008093480110C0E0919C07F0919D07058010
:1016F000F681E02D0680F781E02D82819381909321
:101700004901809348012091840730918507809199
:101710004801909149012817390708F469C0E09100
:101720009C07F0919D078081882399F0E0919C07A8
:10173000F0919D070580F681E02DC681D7818A81D1
:101740009B81209184073091850728173907F8F489
:1017500019C08FEF9FEF909349018093480148C0D3
:10176000E0919C07F0919D070580F681E02DC681F0
:10177000D7818A819B812091840730918507281722
:10178000390728F4909349018093480131C08E01B4
:101790000E5F1F4FC8010E9401018C899D89892B12
:1017A00021F0CE010C960E9401012E8980918207C2
:1017B000821710F42093820730E0C901880F991F27
:1017C000880F991F880F991F820F931FB8018055AA
:1017D000984F0E949F00E0919C07F0919D078081A7
:1017E0008111BECFB6CF80917F078F5F80937F0737
:1017F000DF91CF911F910F910895CF92DF92EF92D9
:10180000FF920F931F93CF93DF930FB6F8940F922D
:10181000809180078150809380078091800781119B
:1018200062C080918607811132C060C0D7011596D1
:10183000ED91FC911697C681D781CE010C960E943E
:1018400001018E010E5F1F4FC8010E9401012E8908
:1018500080918207821710F42093820730E0C9013B
:10186000880F991F880F991F880F991F820F931F48
:10187000B8018055984F0E949F00E091D407F091E5
:10188000D5079E898689981758F0DC2C09C0D12C81
:101890000F2EF1E9EF2EF7E0FF2EF02DCC24C394AC
:1018A000F70180818111C2CF80917F07882379F071
:1018B00080917F07882391F0DCDE80917F07815043
:1018C00080937F0780917F078111F6CF07C0F1E0F9
:1018D000DF1621F080917E07813039F410927E0767
:1018E000AEDC81E003C080E001C080E00F900FBE5D
:1018F000DF91CF911F910F91FF90EF90DF90CF90EC
:101900000895CF93DF93EC01892B99F0ACDE8091A1
:10191000840790918507C80FD91F8091D4079091B3
:10192000D50702960E940101CE013CDD66DF8111E0
:1019300001C085DCDF91CF9108950F2EF8E8EF2EDE
:10194000F7E0FF2EF02DC0EBD7E0809187078823CA
:1019500041F189DED7011C9150DF112311F10FB63F
:10196000F8940F92D7011596ED91FC911697068188
:101970001781C80102960E9401018091860781505B
:1019800080938607809187078150809387070F9007
:101990000FBEF8018789908D0E948C00C8010E94BB
:1019A0008C008881823088F24ADCCFCF809180071A
:1019B000811113C08091820790E0FC01EE0FFF1FA0
:1019C000EE0FFF1FEE0FFF1F8E0F9F1FFC01E05554
:1019D000F84F8081882329F01BC081E080937E0727
:1019E00008958091820781508093820780918207B9
:1019F00090E0FC01EE0FFF1FEE0FFF1FEE0FFF1F29
:101A00008E0F9F1FFC01E055F84F8081882349F31A
:101A10008091820790E09C01220F331F220F331F19
:101A2000220F331F280F391FD901A055B84F119627
:101A3000ED91FC9112970280F381E02D1296FC93B8
:101A4000EE9311972D54384FE217F30729F42281B2
:101A50003381FD0132832183FC01EE0FFF1FEE0F66
:101A6000FF1FEE0FFF1F8E0F9F1FFC01E055F84F69
:101A70000180F281E02D868197819093D507809334
:101A8000D40708955058BB27AA270ED0FBC0ECD02E
:101A900030F0F1D020F031F49F3F11F41EF4E1C09A
:101AA0000EF4E095E7FBC9C0E92FFDD080F3BA172B
:101AB000620773078407950718F071F49EF515C146
:101AC0000EF4E0950B2EBA2FA02D0B01B901900159
:101AD0000C01CA01A0011124FF27591B99F0593F9D
:101AE00050F4503E68F11A16F040A22F232F342FE5
:101AF0004427585FF3CF469537952795A795F04033
:101B00005395C9F77EF41F16BA0B620B730B840B47
:101B1000BAF09150A1F0FF0FBB1F661F771F881FFF
:101B2000C2F70EC0BA0F621F731F841F48F4879557
:101B300077956795B795F7959E3F08F0B3CF939546
:101B4000880F08F09927EE0F97958795089551D043
:101B500008F481E0089588D018F011F08CD038F4A2
:101B600080C0C4C0E92F9FD0B0F35523C9F3E7FB71
:101B70006217730784079507A8F199F3E92FFF27E8
:101B800088232AF03197660F771F881FDAF7952F81
:101B90005527442332F091505040220F331F441FE9
:101BA000D2F7BB27E91BF50B621B730B840BB10942
:101BB000C1F222F4620F731F841FB11D31972AF006
:101BC000660F771F881FBB1FEFCF915050405AF010
:101BD00041F0882332F0660F771F881F91505040E4
:101BE000C1F7939530C08695779567959F5FD9F734
:101BF000F8CF990F0008550FAA0BE0E8FEEF161674
:101C00001706E807F907C0F012161306E407F507F0
:101C100098F0621B730B840B950B39F40A2661F064
:101C2000232B242B252B21F408950A2609F4A14007
:101C3000A6958FEF811D811D089597F99F6780E814
:101C400070E060E008959F3F31F0915020F4879557
:101C500077956795B795880F911D9695879597F914
:101C600008959FEF80EC089500240A941616170635
:101C700018060906089500240A941216130614067D
:101C800005060895092E0394000C11F4882352F0E0
:101C9000BB0F40F4BF2B11F460FF04C06F5F7F4F98
:101CA0008F4F9F4F089557FD9058440F551F59F07F
:101CB0005F3F71F04795880F97FB991F61F09F3F39
:101CC00079F087950895121613061406551FF2CF62
:101CD0004695F1DF08C0161617061806991FF1CFB2
:101CE00086957105610508940895E894BB276627D9
:101CF0007727CB0197F90895991B79E004C0991FC4
:101D0000961708F0961B881F7A95C9F78095089555
:101D1000DF93CF931F930F939A9DF02D219FF00D8A
:101D20008B9DF00D8A9DE02DF10D039FF00D029F1C
:101D3000E00DF11D4E9DE00DF11D5E9DF00D4F9DDE
:101D4000F00D7F936F93BF92AF925F934F93D50146
:101D500039D08B01AC01D70135D0EB01E80FF91F69
:101D6000D6011FD02F913F91D6012CD0C60FD71F7F
:101D7000E81FF91FAF91BF9114D02F913F9122D04E
:101D8000C60FD71FE81FF91FD6011CD0E60FF71F9B
:101D90009801BE01CF0111240F911F91CF91DF91C6
:101DA000089510D0460F571FC81FD91F08F4319649
:101DB00008952A0D3B1D4C1D5D1D6E1D7F1D801F4E
:101DC000911F0895A29FB001B39FC001A39F700D02
:101DD000811D1124911DB29F700D811D1124911D33
:101DE0000895CF93DF938230910510F482E090E064
:101DF000E091E807F091E90720E030E0C0E0D0E0B2
:101E0000309711F14081518148175907C0F04817A8
:101E1000590761F482819381209719F09B838A830B
:101E20002BC09093E9078093E80726C02115310560
:101E300019F04217530718F49A01BE01DF01EF01B0
:101E40000280F381E02DDCCF2115310509F1281B3B
:101E5000390B2430310590F412968D919C91139793
:101E60006115710521F0FB019383828304C0909377
:101E7000E9078093E807FD01329644C0FD01E20FB7
:101E8000F31F81939193225031092D933C933AC0D3
:101E90002091E6073091E707232B41F420910201BE
:101EA000309103013093E7072093E607209100016A
:101EB000309101012115310541F42DB73EB7409114
:101EC000040150910501241B350BE091E607F091C8
:101ED000E707E217F307A0F42E1B3F0B281739077B
:101EE00078F0AC014E5F5F4F2417350748F04E0F76
:101EF0005F1F5093E7074093E6078193919302C0D9
:101F0000E0E0F0E0CF01DF91CF9108950F931F93B0
:101F1000CF93DF93009709F48CC0FC0132971382B2
:101F200012820091E8071091E9070115110581F46B
:101F300020813181820F931F2091E6073091E707BE
:101F40002817390779F5F093E707E093E60771C0A2
:101F5000D80140E050E0AE17BF0750F412962D9123
:101F60003C911397AD012115310509F1D901F3CF4A
:101F70009D01DA013383228360817181860F971F6F
:101F80008217930769F4EC0128813981260F371FE6
:101F90002E5F3F4F318320838A819B81938382838D
:101FA000452B29F4F093E907E093E80742C0139624
:101FB000FC93EE931297ED01499159919E01240FE4
:101FC000351FE217F30771F480819181840F951F0B
:101FD000029611969C938E938281938113969C9383
:101FE0008E931297E0E0F0E0D80112968D919C91CB
:101FF0001397009719F0F8018C01F6CF8D919C9101
:1020000098012E5F3F4F820F931F2091E60730917A
:10201000E7072817390769F4309729F41092E90780
:102020001092E80702C0138212821093E707009310
:10203000E607DF91CF911F910F910895DC0101C058
:102040006D9341505040E0F70895FB01DC01415091
:10205000504048F001900D920020C9F701C01D9238
:0C20600041505040E0F70895F894FFCF85
:10206C000000EA072000060100000001010000004A
:10207C00010000000101000000010000000101004E
:10208C000000010100000107060504030201000322
:10209C000201000706050401010101010101017B98
:1020AC00077B077A077A07FFFFFF4D6F746F726526
:1020BC0072004D6F766572005368696674657200C4
:1020CC004A6F79537469636B657200526563656915
:0A20DC007665720049444C4500008F
:00000001FF
